:020000040800F2
:100000002008002029020008471600089112000865
:10001000451600081F040008C7190008000000006A
:100020000000000000000000000000004B16000867
:100030002104000800000000491600084D160008C1
:10004000430200084302000843020008430200087C
:10005000430200084302000843020008430200086C
:10006000430200084302000843020008430200085C
:10007000430200084302000843020008430200084C
:10008000430200084302000843020008430200083C
:10009000430200084302000843020008430200082C
:1000A000430200084302000843020008430200081C
:1000B000430200084302000843020008430200080C
:1000C00043020008430200084302000843020008FC
:1000D00043020008430200084302000843020008EC
:1000E00043020008430200084302000843020008DC
:1000F00043020008430200084302000843020008CC
:1001000043020008430200084302000843020008BB
:1001100043020008430200084302000843020008AB
:10012000430200084302000843020008430200089B
:10013000430200084302000843020008430200088B
:10014000430200084302000843020008430200087B
:10015000430200084302000843020008430200086B
:10016000430200084302000843020008430200085B
:100170004302000843020008430200080000000098
:10018000430200084302000800F002F800F03CF8C7
:100190000AA090E8000C82448344AAF10107DA45E2
:1001A00001D100F031F8AFF2090EBAE80F0013F0F8
:1001B000010F18BFFB1A43F001031847EC190000A8
:1001C0000C1A0000103A24BF78C878C1FAD8520738
:1001D00024BF30C830C144BF04680C6070470000C1
:1001E0000023002400250026103A28BF78C1FBD840
:1001F000520728BF30C148BF0B6070471FB501F0E0
:10020000C5FC1FBD10B510BD00F0CFF81146FFF7BB
:10021000F5FF01F0FFFB00F0EDF803B4FFF7F2FF8C
:1002200003BC00F0F5F80000094880470948004782
:10023000FEE7FEE7FEE7FEE7FEE7FEE7FEE7FEE796
:10024000FEE7FEE704480549054A064B70470000F3
:10025000E51600088901000820020020200800207F
:10026000200400202004002053EA020C00F06980E2
:100270002DE9F04B4FF00006002B1FBFB3FA83F5BA
:1002800003FA05F424FA05F65E4012BF1643B2FAEB
:1002900082F502FA05F4C5F120051EBF22FA05FC1D
:1002A00044EA0C04203556EA044C4FEA144418BFC3
:1002B000641C4FF000084FF00009904271EB030CF2
:1002C00039D3002919BFB1FA81F701FA07F6B0FA5C
:1002D00080F700FA07F6C7F120071EBF20FA07FCD7
:1002E00046EA0C062037B6FBF4FCA7EB0507103FE7
:1002F00007F01F0BCBF120060CFA0BFB2CFA06F6CD
:1003000044BFB3460026202FA4BF5E464FF0000B2B
:100310005BEA060C08BF4FF0010B19EB0B09ABFBB6
:10032000027C48EB0608C01B06FB02CC0BFB03CC8F
:1003300071EB0C01C1E70B46024641464846BDE859
:10034000F08B13B54FF000004FF00001AFF30080C9
:10035000BDE81C4070474FF0000200B513469446BC
:100360009646203922BFA0E80C50A0E80C50B1F10D
:100370002001BFF4F7AF090728BFA0E80C5048BF21
:100380000CC05DF804EB890028BF40F8042B08BFBF
:10039000704748BF20F8022B11F0804F18BF00F8BB
:1003A000012B7047704770477047754600F02CF876
:1003B000AE4605006946534620F00700854618B052
:1003C00020B5FFF73FFFBDE820404FF000064FF09B
:1003D00000074FF000084FF0000B21F00701AC467A
:1003E000ACE8C009ACE8C009ACE8C009ACE8C00999
:1003F0008D46704710B50446AFF300802046BDE837
:100400001040FFF70ABF000000487047C0010020FD
:1004100001491820ABBEFEE7260002007047FEE748
:10042000704772B6FEE700002DE9F84FDFF8BCA177
:100430000022012503264FF00F090AF1040BAAF14F
:10044000040E00BF0B6805FA02F42340A34270D1EA
:100450000F7907F00307012F01D0022F16D187680B
:100460004FEA420806FA08FC27EA0C07D1F80CC04C
:100470000CFA08FC4CEA070CC0F808C04768A74310
:100480000C79C4F3001494403C4344600C79E44379
:10049000A4070AD0C4684FEA420C06FA0CF7BC4322
:1004A0008F6807FA0CF72743C7600C7904F0030440
:1004B000022C12D1D40800EB840CDCF82040570742
:1004C000FF0E09FA07F824EA0804D1F8108008FAA8
:1004D00007F848EA0408CCF8208004684FEA420C88
:1004E00006FA0CF7BC430F7907F0030707FA0CF77D
:1004F000274307604C6814F4403F70D03C4C276899
:1005000047F480472760246822F0030704F48044FE
:100510000094384C07EB040CDCF8084897074FEAC6
:10052000177809FA08F7BC43334FB84202D10027C5
:1005300024E054E0314FB84201D101271EE0304F92
:10054000B84201D1022719E02E4FB84201D103274A
:1005500014E02D4FB84201D104270FE02B4FB842D1
:1005600001D105270AE02A4FB84201D1062705E04C
:10057000284FB84201D1072700E0082707FA08F7FB
:100580002743CCF80878DAF800405746D1F804C081
:100590009C435FEACC2C00D51C433C60DBF8004058
:1005A0005F46D1F804C09C435FEA8C2C00D51C4305
:1005B0003C60DEF800407746D1F804C09C435FEA17
:1005C0008C3C00D51C433C60084F083F3C68D1F888
:1005D00004C09C435FEACC3C00D51C433C60521CE9
:1005E000102AFFF42FAFBDE8F88F0000083C01404F
:1005F0004438024000300140000002400004024044
:1006000000080240000C02400010024000140240AA
:1006100000180240001C02400AB1816170470904C1
:10062000FBE70000014880687047000000000020E0
:100630000248816802781144816070470000002000
:100640000B4810B5016841F400710160016841F484
:1006500080610160016841F480710160032000F055
:1006600061F80F2000F006F800F024F8002010BD1B
:10067000003C024070B50D4D04464FF47A71287865
:10068000B1FBF0F00A490968B1FBF0F000F0DCFAC8
:1006900048B9102C07D200222146501E00F022F843
:1006A00000206C6070BD012070BD000000000020C3
:1006B0000C0000200A4808B5016841F4804101603F
:1006C000006800F4804000900548001F016841F078
:1006D00080510160006800F08050009008BD00006B
:1006E00044380240F0B40E4B1B680C46C3F302239F
:1006F000C3F10705042D00D90425191D072901D2CE
:10070000002300E0DB1E012606FA05F1491E214008
:1007100099409E40761E16403143F0BC01F054B91A
:100720000CED00E0064900F0070208684FF6FF03F1
:10073000184040EA0220034A104308607047000056
:100740000CED00E00000FA052DE9F0470E4605002B
:1007500065D0DFF81481D8F80000F7B200F0070088
:10076000B04207D288F80070D8F8000000F0070007
:10077000B04254D128683D4C810712D5400703D5BB
:10078000206840F4E05020602878000703D52068F6
:1007900040F4604020602068A96820F0F000084321
:1007A00020602878C0072DD03049686808390128B2
:1007B00012D0022813D0032811D009688907002914
:1007C0002DDA216821F0030101432160FFF72AFFA0
:1007D000814641F2883A0EE009688903EFE709682B
:1007E0008901ECE7FFF71EFFA0EB0901514502D993
:1007F0000320BDE8F0872068696800F00C00B0EBCA
:10080000810FEFD1D8F80010404601F00701B14246
:1008100007D90770006800F00700B04201D001203E
:10082000E7E72878400705D52068E96820F4E0501C
:10083000084320602878000706D52068296920F43D
:10084000604040EAC100206000F018F82168084AC2
:10085000C1F30311515CC8400649086006480068AE
:10086000FFF708FF0020C4E7003C024008380240C0
:10087000961B00080C00002004000020154810B54D
:10088000006810F00C02144813D04110042A0FD055
:10089000082A0ED10F4C241F2268236802F03F0261
:1008A0005B0207D52068C0F38810A0FB010106E0B9
:1008B000084610BD2168C1F38811A1FB0001002387
:1008C000FFF7D2FC2168C1F30141491C4900B0FB8C
:1008D000F1F010BD083802400024F4002DE9F84F73
:1008E00004006ED02078DFF84C93C007A9F104050E
:1008F0004AD009F104000168C1F38101012908D03F
:100900000068C0F3810002280AD1D9F80000400233
:1009100006D52868800337D560680028E1D033E029
:100920006068B0F5803F10D0B0F5A02F286810D0D7
:1009300020F480302860286820F4802028606068D7
:10094000A8B1FFF76FFE06460DE0286840F480303E
:10095000F4E740F480202860F7E700BFFFF762FE6D
:10096000801B642873D828688003F7D50CE0FFF754
:1009700059FE064605E000BFFFF754FE801B6428C1
:10098000F0D828688003F7D42078DFF8AC8280079D
:100990004FF0000A3ED5A748001D016811F00C0F6A
:1009A00008D00068C0F3810002280BD1D9F80000FC
:1009B000400207D42868800716D5E068012800D1D6
:1009C00012E033E1E068B8B10120C8F80000FFF799
:1009D00029FE064605E000BFFFF724FE801B022823
:1009E000C0D828688007F7D52868216920F0F8006A
:1009F00040EAC10028600DE0C8F800A0FFF712FE31
:100A0000064604E0FFF70EFE801B02281FD8286868
:100A10008007F7D42078000722D5864F8748616980
:100A2000703771B101210160FFF7FCFD064604E05B
:100A3000FFF7F8FD801B022809D838688007F7D532
:100A40000EE0C0F800A0FFF7EDFD064605E082E0ED
:100A5000FFF7E8FD801B02287DD838688007F7D4AF
:100A60002078400768D5DFF8CCB100270BF13C0BAC
:100A7000DBF80000C0000BD4DBF8001041F080511F
:100A8000CBF80010DBF80000012700F08050009048
:100A90006B4E3068C00510D4306840F48070306010
:100AA000FFF7C0FD009005E0FFF7BCFD0099401A7C
:100AB000022850D83068C005F6D55E4EA0686C3666
:100AC00001280FD00528306810D020F001003060D8
:100AD000306820F004003060A068B8B1FFF7A2FDD4
:100AE00000900FE0306840F00100F4E740F00400AF
:100AF0003060F7E7FFF796FD0099411A41F2883020
:100B0000814266D830688007F4D50EE0FFF78AFD91
:100B1000009007E0FFF786FD0099411A41F2883006
:100B2000814256D830688007F4D42FB1DBF800102A
:100B300021F08051CBF80010A069C8B33D49091DD0
:100B40000968C1F3810102294AD00228504607D022
:100B5000C8F8600000E03CE0FFF764FD04463BE0BD
:100B60004746C8F86000FFF75DFD064605E000BF98
:100B7000FFF758FD801B02282BD828688001F7D486
:100B8000D4E907010843A16A2E4A490802EB014152
:100B9000626A41EA8211084394F82C1040EA01612C
:100BA000C9F8001001203866FFF73CFD044606E056
:100BB0003EE000BFFFF736FD001B022809D8286879
:100BC0008001F7D534E000BFFFF72CFD001B0228A1
:100BD00002D90320BDE8F88F28688001F4D427E00B
:100BE0000128F7D0D9F80000E26900F480019142B1
:100BF0001CD1226A00F03F01914217D147F6C07123
:100C0000626A0140B1EB821F10D1A26A4FF0FF333C
:100C100000F4403103EB5202B1EB024F06D194F8DD
:100C20002C1000F07060B0EB016F01D00120D1E713
:100C30000020CFE70438024000004742800E4742C0
:100C4000007000400000FFFF10B5401EB0F1807F33
:100C500001D3012010BD4FF0E02460610F21601727
:100C600000F0B2FE0020A06107202061002010BD2E
:100C700010B590F83C20012A22D0012280F83C20B7
:100C8000CA688C6822F4407222434C6822F4806265
:100C900022430C6822F4006222430C6922F4805241
:100CA00022434C6922F400522243C969002322F4F2
:100CB00080420A4301684A6480F83C30002010BD3D
:100CC000022010BD70B590F83C20012A32D00124DA
:100CD00080F83C40022280F83D2003685A689D68F5
:100CE00022F070060A6832435A60134B02689A4237
:100CF00014D0B2F1804F11D0104B9A420ED0104B4D
:100D00009A420BD00F4B9A4208D00F4B9A4205D013
:100D10000E4B9A4202D00E4B9A4204D1496825F0FC
:100D200080031943916080F83D40002180F83C1019
:100D3000084670BD022070BD000001400004004064
:100D400000080040000C0040000401400040014049
:100D50000018004010B5040003D094F83D0010B115
:100D600007E0012010BD002084F83C00204600F080
:100D70001FF8022084F83D00211D206800F0BAFC15
:100D8000012084F8460084F83E0084F83F0084F88F
:100D9000400084F8410084F8420084F8430084F85D
:100DA000440084F8450084F83D00002010BD000098
:100DB00008B5224A01682248914205D1016841F0F4
:100DC00001010160006814E01D4A121FB1F1804F5B
:100DD0000AD01C4B994210D1106840F002001060FC
:100DE000106800F0020006E0106840F0010010609A
:100DF000106800F00100009008BD134A914207D12D
:100E0000016841F480310160006800F48030F2E74D
:100E10000E4A914207D1016841F400310160006837
:100E200000F40030E7E70A4A9142E5D1016841F455
:100E300080210160006800F48020DCE700000140B0
:100E4000443802400004004000400140004401409A
:100E50000048014090F83D10012901D00120704761
:100E6000022180F83D100168CA6842F00102CA60A0
:100E700000681149884214D0B0F1804F11D00F4959
:100E800088420ED00E4988420BD00E49884208D0C5
:100E90000D49884205D00D49884202D00C4988424C
:100EA00004D1816801F00701062903D0016841F0EF
:100EB0000101016000207047000001400004004073
:100EC00000080040000C00400004014000400140C8
:100ED0000018004070B5044690F83C000025012839
:100EE00017D0012684F83C60022084F83D00206879
:100EF000826822F0770222F47F42826008685028DC
:100F000038D00DDC20284FD005DC90B3102811D14B
:100F10004AE0022070BD302846D040280AD13BE08C
:100F200060282FD070280DD0B0F5805F03D0B0F5C9
:100F3000005F12D0012584F83D60002084F83C0059
:100F4000284670BDCB68D1E90121206800F043FC40
:100F50002068816841F0770109E0CB68D1E901217F
:100F6000206800F038FC2068816841F4804181608D
:100F7000E1E719E0CA684968206800F001FD5021E6
:100F8000206806E0CA684968206800F00AFD602110
:100F9000206800F02AFCCEE7CA684968206800F0A3
:100FA000EFFC40212068F4E7226801461046F0E794
:100FB00070B586B0044614216846FFF7CCF9246862
:100FC000254D0022254902232548AC4211D10C6849
:100FD00044F010040C60096801F0100105914FF411
:100FE000D4410091CDE901320121CDE903216946C7
:100FF0000DE01C4E0325B4420DD10C6844F01004E2
:101000000C60096801F01001059160211DE0FFF7F7
:101010000BFA06B070BD144E1448B44209D10C68E6
:1010200044F002040C60096801F002010591811589
:101030000BE00F4EB442ECD10C6844F002040C609B
:10104000096801F00201059171150091CDE90132A5
:10105000CDE903256946DAE7000001403038024057
:1010600000100240004001400044014000040240E2
:101070000048014070B5044690F83C0000260D463B
:1010800001280FD0012084F83C006AB1042A1DD049
:10109000082A2FD00C2A3FD00126002084F83C00DB
:1010A000304670BD022070BD206800F0A7FB2068AC
:1010B000816941F0080181612068816921F00401A2
:1010C0008161206881692A69114311E0206800F07C
:1010D000C5FB2068816941F40061816120688169F4
:1010E00021F480618161206881692A6941EA0221D5
:1010F0008161D2E7206800F0E7FB2068C16941F018
:101100000801C1612068C16921F00401C161206842
:10111000C1692A69114311E0206800F009FC2068C8
:10112000C16941F40061C1612068C16921F4806135
:10113000C1612068C1692A6941EA0221C161ACE745
:1011400010B5040003D094F83D0010B107E0012071
:1011500010BD002084F83C00204600F01EF802205C
:1011600084F83D00211D206800F0C4FA012084F8B5
:10117000460084F83E0084F83F0084F8400084F87C
:10118000410084F8420084F8430084F8440084F865
:10119000450084F83D00002010BD704730B50025A3
:1011A0000446022249B1042912D008294CD094F8EF
:1011B0004100012853D0012030BD94F83E000128A1
:1011C000F9D184F83E202068C26842F0020209E0AA
:1011D00094F83F000128EED184F83F202068C268CF
:1011E00042F00402C2600122206800F0E7FA2149BF
:1011F0002068214A884201D0904203D1436C43F4D5
:10120000004343642068884213D0B0F1804F10D06F
:101210001A4988420DD01A4988420AD01949884291
:1012200007D0904205D01849884202D01749884219
:1012300004D1816801F00701062903D0016841F05B
:1012400001010160284630BD94F840000128B2D168
:1012500084F840202068C26842F00802C2E784F89F
:1012600041200C2901D00125ECE72068C26842F03A
:101270001002B7E7000001400004014000040040F4
:1012800000080040000C00400040014000180040F1
:10129000FEE7000070B586B014216846FFF75BF8E2
:1012A0001A480024016841F010010160016801F052
:1012B00010010591016841F080010160016801F0B1
:1012C00080010591016841F001010160016801F0B0
:1012D00001010591016841F00201016000680C4EB6
:1012E00000F002004FF48055059000222946304658
:1012F000FFF792F901200095CDE9010469463046D7
:101300000394FFF791F806B070BD0000303802403A
:101310000000024010B588B01C216846FFF71BF89A
:101320001548144900240160A721C0E9011440F2C6
:10133000E731C0E9031480218161FFF70BFD08B19B
:10134000FFF76FF80C48FFF7FBFE08B1FFF769F8ED
:101350006020CDE900040294002269460648049406
:10136000FFF788FE08B1FFF75CF80348FFF720FE9F
:1013700008B010BD004401403001002010B588B015
:101380001C216846FEF7E7FF154814490024016058
:10139000A721C0E9011440F2E731C0E9031480211C
:1013A0008161FFF7D7FC08B1FFF73BF80C48FFF766
:1013B000C7FE08B1FFF735F86020CDE900040294BC
:1013C0000022694606480494FFF754FE08B1FFF76F
:1013D00028F80348FFF7ECFD08B010BD00480140B5
:1013E0007801002010B596B000240F941094119449
:1013F000129413941C2168461494FEF7ACFF20212C
:1014000007A8FEF7A8FF354833490160A721C0E9C6
:10141000011440F2E731C0E903148021C0E905411D
:10142000FFF798FC08B1FEF7FCFF4FF480500F90D7
:101430000FA92A48FFF74EFD08B1FEF7F2FF274833
:10144000FFF77EFE08B1FEF7ECFF139413A92348C3
:101450001494FFF737FC08B1FEF7E3FF6020CDE9F5
:1014600000040294039404940594002269461B48E6
:101470000694FFF7FFFD08B1FEF7D3FF042269468B
:101480001648FFF7F7FD08B1FEF7CBFF08226946C3
:101490001248FFF7EFFD08B1FEF7C3FF0C226946C3
:1014A0000E48FFF7E7FD08B1FEF7BBFF079408946D
:1014B00009944FF400500A94CDE90B4007A907485E
:1014C0000E94FFF7D5FB08B1FEF7ABFF0348FFF71B
:1014D0006FFD16B010BD000000000140100000209C
:1014E00010B586B000241748009401940294039428
:1014F00004944FF0804105940160A721C0E90114D4
:1015000040F2E731C0E9031480218161FFF722FC3A
:1015100008B1FEF786FF4FF48050009069460948F5
:10152000FFF7D8FC08B1FEF77CFF049404A9054836
:101530000594FFF7C7FB002801D0FEF772FF06B045
:1015400010BD00005800002010B586B000241748D8
:101550000094019402940394049413490594016047
:10156000A721C0E901144FF6FF71C0E9031484619B
:10157000FFF7F0FB08B1FEF754FF4FF480500090E6
:1015800069460A48FFF7A6FC08B1FEF74AFF049433
:1015900004A906480594FFF795FB002801D0FEF743
:1015A00040FF06B010BD000000040040A000002075
:1015B00010B58CB000240794089409941C21684647
:1015C0000A94FEF7C8FE1E481C490160A721C0E925
:1015D000011440F2E731C0E9031480218161FFF773
:1015E000B9FB08B1FEF71DFF4FF48050079007A923
:1015F0001348FFF76FFC08B1FEF713FF1048FFF721
:101600009FFD08B1FEF70DFF6020CDE900040294B4
:10161000002269460A480494FFF72CFD08B1FEF742
:1016200000FF042269460648FFF724FD08B1FEF7D3
:10163000F8FE0348FFF7BCFC0CB010BD00400140B1
:10164000E8000020FEE7FEE770477047FEF7F0BFB6
:1016500030B593B030216846FEF77DFE14210CA80A
:10166000FEF779FE1D480025016841F080510160B8
:10167000006800F0805011901948016841F48041E1
:1016800001600068022400F4804011900120009065
:10169000000401908001CDE9064008AA0420A82199
:1016A00082E813000B906846FFF718F908B172B68C
:1016B000FEE70CA90F2081E831004FF4A0500F90F5
:1016C0004FF48050109005210CA8FFF73DF800283A
:1016D00001D072B6FEE713B030BD000040380240C2
:1016E000007000400248016841F4700101607047D9
:1016F00088ED00E0F0B50268254C264D264E274FB8
:10170000274B4FF0804CA04209D0604507D0A8423B
:1017100005D0B04203D0B84201D0984204D122F0A3
:10172000700E4A6842EA0E02A0421BD0604519D0F2
:10173000A84217D0B04215D0B84213D0984211D069
:10174000184DA8420ED0184DA8420BD0174DA842F4
:1017500008D0174DA84205D0164DA84202D0164D0C
:10176000A84203D122F44075CA682A434D6922F089
:1017700080022A4302608A68C2620A688262A042CA
:1017800001D0984201D10969016301214161F0BD95
:10179000000001400004004000080040000C004030
:1017A0000004014000400140004401400048014065
:1017B00000180040001C00400020004010B501F05F
:1017C0001F030121046A99408C430462016A9A4014
:1017D0001143016210BD10B5846842EA032224F46B
:1017E0007F440A432243826010BD826822F0700267
:1017F0000A4342F00701816070470000F0B5026AB9
:1018000022F001020262036A42688469124E24F0E7
:1018100073050C682C4323F002058B682B430D4D98
:10182000A84201D0B04205D123F00807CB683B4362
:1018300023F00403A84201D0B04205D14D6922F43F
:10184000407215438A692A43426084614968416352
:101850000362F0BD0000014000040140F0B5026ADF
:1018600022F010020262026A436884690D6824F45F
:10187000E64444EA05248D6822F0200242EA05127B
:101880000F4D104EA84201D0B04206D1CF6822F0D1
:10189000800242EA071222F04002A84201D0B04280
:1018A00007D14D6923F4406343EA85038D6943EA18
:1018B000850343608461496881630262F0BD000072
:1018C0000000014000040140F0B5026A22F4807279
:1018D0000262026A4368C46922F4007224F073054C
:1018E0000C68124E2C438D6842EA05220E4DA84228
:1018F00001D0B04206D1CF6822F4006242EA07224A
:1019000022F48062A84201D0B04207D14D6923F48D
:10191000405343EA05138D6943EA05134360C461EC
:101920004968C1630262F0BD00000140000401404B
:1019300030B5026A22F480520262046A4268C369C6
:101940000D6823F4E64343EA05238D6824F400542C
:1019500044EA0534084DA84202D0084DA84204D1FB
:101960004D6922F4804242EA85124260C3614968AF
:101970000164046230BD0000000001400004014029
:1019800010B5036A046A24F001040462846924F037
:10199000F00444EA021423F00A020A43846102625A
:1019A00010BD10B5036A23F0100303628369046A53
:1019B00023F4704343EA023224F0A00343EA011106
:1019C0008261016210BDFEE70907090E002804DBF1
:1019D00000F1E02080F80014704700F00F0000F1E3
:1019E000E02080F8141D704770B50C4601461D4676
:1019F0001646012000F05EF82146022000F05AF859
:101A00003146032000F056F82946BDE87040042016
:101A100000F050B8FEF714FEFFF71AFEFFF73AFC8D
:101A2000FFF75EFDFFF7DEFCFFF78EFDFFF7C0FD61
:101A3000FFF770FCFFF7A2FC1A48FFF70BFA1A48F1
:101A4000FFF708FA1948FFF705FA1948FFF702FAF5
:101A500000211448FFF7A2FB04211248FFF79EFB68
:101A600008211048FFF79AFB0C210E48FFF796FB60
:101A700000210D48FFF792FB04210B48FFF78EFB76
:101A800000210A48FFF78AFB00210948FFF786FB7F
:101A90004FF47A7423461A4620461146FFF7A4FFF6
:101AA000F8E7000010000020E800002030010020CE
:101AB00078010020304B30B55A42012812D002285C
:101AC00025D02E4C0328256838D0042809D10029B8
:101AD00048DA994200DA194601F57A71696320689B
:101AE000826330BD26480029046807DA994200DA8B
:101AF000194601F57A7161630068F1E7914200DDF2
:101B0000114662630068C1F57A71816330BD1D487A
:101B10001D4C0029006808DA994200DA194601F5DF
:101B20007A7141632068426330BD914200DD114605
:101B30004263C1F57A702168486330BD002908DA34
:101B4000994200DA194601F57A7129642068C26366
:101B500030BD914200DD11462A64C1F57A702168DA
:101B6000C86330BD914200DD11466A63C1F57A70E9
:101B70002168886330BD000018FCFFFF10000020C2
:101B8000E800002078010020300100204FF0407074
:101B9000E1EE100A704700000000000000000102A2
:101BA0000304060708090000C81B00080000002005
:101BB00010000000C4010008D81B0008100000201D
:101BC00010080000E0010008010000001000000003
:081BD000000000000024F400F5
:040000050800018965
:00000001FF
