:020000040800F2
:10000000881500207902000871430008992F000824
:1000100089420008910800081955000800000000F6
:10002000000000000000000000000000A54B0008D8
:100030001D0A00080000000073430008A74B0008D9
:10004000930200089302000893020008930200083C
:10005000930200089302000893020008930200082C
:1000600093020008930200089302000801090008A7
:100070000D090008190900082509000831090008C0
:1000800093020008930200089302000893020008FC
:1000900093020008930200089302000893020008EC
:1000A00093020008930200089302000893020008DC
:1000B00093020008930200089302000893020008CC
:1000C00093020008930200089302000893020008BC
:1000D000930200087554000893020008C1540008F8
:1000E000930200089302000893020008694C00087C
:1000F0009302000893020008930200083D090008DB
:10010000930200089302000893020008930200087B
:10011000594F0008A54F0008514C00085D4C0008DD
:1001200093020008490900085509000893020008D5
:10013000930200089302000893020008930200084B
:10014000930200089302000893020008930200083B
:1001500093020008610900086D090008CD540008E9
:10016000930200089302000893020008930200081B
:1001700093020008930200089302000800000000A8
:10018000930200089302000800F002F800F065F8FE
:100190000AA090E8000C82448344AAF10107DA45E2
:1001A00001D100F05AF8AFF2090EBAE80F0013F0CF
:1001B000010F18BFFB1A43F0010318472C61000020
:1001C0004C6100000A444FF0000C10F8013B13F0A2
:1001D000070408BF10F8014B1D1108BF10F8015BA0
:1001E000641E05D010F8016B641E01F8016BF9D193
:1001F00013F0080F1EBF10F8014BAD1C0C1B09D1EA
:100200006D1E58BF01F801CBFAD505E014F8016B5B
:1002100001F8016B6D1EF9D59142D6D370470000ED
:100220000023002400250026103A28BF78C1FBD8FF
:10023000520728BF30C148BF0B6070471FB506F09A
:100240003DF800F0A5F904000020002105F0CEFDE6
:10025000401C60601FBD10B510BD00F073F9114661
:10026000FFF7ECFF05F06CFA00F0A4F903B4FFF718
:10027000F2FF03BC00F0A8F909488047094800478D
:10028000FEE7FEE7FEE7FEE7FEE7FEE7FEE7FEE746
:10029000FEE7FEE704480549054A064B70470000A3
:1002A000414C000889010008880F002088150020B3
:1002B000881100208811002053EA020C00F06980A8
:1002C0002DE9F04B4FF00006002B1FBFB3FA83F56A
:1002D00003FA05F424FA05F65E4012BF1643B2FA9B
:1002E00082F502FA05F4C5F120051EBF22FA05FCCD
:1002F00044EA0C04203556EA044C4FEA144418BF73
:10030000641C4FF000084FF00009904271EB030CA1
:1003100039D3002919BFB1FA81F701FA07F6B0FA0B
:1003200080F700FA07F6C7F120071EBF20FA07FC86
:1003300046EA0C062037B6FBF4FCA7EB0507103F96
:1003400007F01F0BCBF120060CFA0BFB2CFA06F67C
:1003500044BFB3460026202FA4BF5E464FF0000BDB
:100360005BEA060C08BF4FF0010B19EB0B09ABFB66
:10037000027C48EB0608C01B06FB02CC0BFB03CC3F
:1003800071EB0C01C1E70B46024641464846BDE809
:10039000F08B13B54FF000004FF00001AFF3008079
:1003A000BDE81C40704770B5064600F033F804689D
:1003B000054630460A22002100F030F82C6070BD5E
:1003C0004FF0000200B5134694469646203922BFEE
:1003D000A0E80C50A0E80C50B1F12001BFF4F7AF39
:1003E000090728BFA0E80C5048BF0CC05DF804EB1B
:1003F000890028BF40F8042B08BF704748BF20F889
:10040000022B11F0804F18BF00F8012B7047704786
:100410007047704700487047240F00202DE9F047CF
:1004200091460F4680460446002614F8015B2DB124
:1004300000F030F80068405DC007F6D12B2D02D0E7
:100440002D2D18D0641E4A463946204600F02AF861
:1004500027B13968A14201D1C7F800804FF00204EA
:1004600071050BD54042002803DDFFF7D3FF046080
:10047000A007BDE8F08746F48066E4E70028F8DAD4
:10048000FFF7C8FF04606FF00040F2E700487047D4
:10049000240F002010B500F07BF8001D10BD00BF38
:1004A0004D5900002DE9F05F824615468B46002726
:1004B0000AF10104B9460078302801D09DB113E05B
:1004C00014F8010B0127782803D0582801D045B132
:1004D0000AE00DB1102D07D1002714F8010B1025EB
:1004E00002E0082500E00A250026B0460EE005FBE4
:1004F000080005FB06F101271FFA80F801EB104602
:10050000B6F5803F00D3B94614F8010B294600F038
:1005100043F80028EBDABBF1000F05D00FB1641EE1
:1005200000E05446CBF80040B9F1000F06D0FFF7C9
:1005300071FF02210160C81EBDE8F09F48EA064035
:10054000FAE770477546FFF7A1FFAE46050069461A
:10055000534620F00700854618B020B5FFF79AFEF5
:10056000BDE820404FF000064FF000074FF00008B4
:100570004FF0000B21F00701AC46ACE8C009ACE835
:10058000C009ACE8C009ACE8C0098D46704700005E
:1005900000487047440F00203A2800D2303820F03D
:1005A0002002412A01D3A2F13700884201D34FF043
:1005B000FF30704710B50446AFF300802046BDE819
:1005C0001040FFF753BE000001491820ABBEFEE704
:1005D000260002004FF0013C50F8042B51F8043B78
:1005E0009A4221D1A2EB0C03934313EACC1317D107
:1005F00050F8042B51F8043B9A4215D1A2EB0C039E
:10060000934313EACC130BD150F8042B51F8043B5D
:100610009A4209D1A2EB0C03934313EACC13DBD02B
:100620004FF00000704700BFD01A01BAB1FA81F153
:1006300001F0180122FA01F0CB40C1F12001DBB238
:10064000C0B2C01A2CFA01F3D11A914311EAC311B6
:10065000E6D17047464910B54A6822F440324A60F4
:100660004A6843681A434A6001684A6822F4807203
:100670004A6001684A68036942EA03224A600168E5
:100680004A6822F040724A6001684A6883681A43E7
:100690004A6001688A6822F400628A6001688A6898
:1006A000C3681A438A60816A6FF07062D142016840
:1006B0008A6822F070628A6001688A680CD0836A56
:1006C0001A438A6001688A6822F040528A60016891
:1006D0008A68C36A1A4301E022F040528A600168C6
:1006E0008A6822F002028A6001688A68037E42EA10
:1006F00043028A6090F82010002901684A680FD0F0
:1007000042F400624A6001684A6822F460424A602A
:1007100001684A68174C436A04EB43331A4301E00B
:1007200022F400624A600168CA6A22F47002CA6256
:100730000168CA6A838B104C04EB03531A43CA62E4
:1007400001688A6822F400728A6001688A6890F8F9
:10075000303042EA43228A6001688A6822F480626B
:100760008A6001688A68406942EA8020886010BD1A
:100770000023014000E0FFFF0000F0FF002800DA46
:100780004042704738B50546134C0020FE2DA0703E
:1007900020D02078F0B104F079FF002818D004218F
:1007A000684605F09BFA042811D19DF80000A84284
:1007B0000DD19DF80110022909D19DF80210801C6D
:1007C0000844C0439DF80320C0B2824201D00020FB
:1007D00038BDA170012038BD3C0000202DE9F0415A
:1007E0001E4C1F48217809B1012200E0002240215F
:1007F00000F0F3FC194A0021121DA2F13400156823
:10080000B0F916604FF0010E00F11E03B54204DA94
:1008100084F800E083F800E003E021701970C182E1
:100820001160B0F91850B0F91A6015FB06FC576852
:1008300067450DDA84F801E083F801E0B74205DD91
:10084000818BC1826D1E0583B81B5060BDE8F081AD
:100850006170597041835160F8E70000300000205A
:10086000000002400549002001F116020870131F24
:100870001060187048705060587070471E0000205B
:10088000024B9883D88219835A8370470000002056
:10089000FEE7002310B51A461946184605F026FA59
:1008A00000231A461946184604F038FF00F004F8F1
:1008B000BDE8104000F012B8044900200860044967
:1008C000086004490860044908607047C4000020BB
:1008D000D4000020E4000020F40000204FF080410C
:1008E0000020486203490860034908600349086022
:1008F000704700002404004024080040240C0040FD
:10090000014800F0FBB900001C0B0020014800F07A
:10091000F5B900009C0C0020014800F0EFB9000080
:100920005C0A0020014800F0E9B90000FC0C00203E
:10093000014800F0E3B90000BC0A0020014800F0C3
:10094000DDB900007C0B0020014800F0D7B90000A1
:100950005C0D0020014800F0D1B90000DC0B002044
:10096000014800F0CBB90000BC0D0020014800F0A8
:10097000C5B900003C0C002001681823CAB2103A27
:10098000B2FBF3F2054B6FF30901032A9B5CC365CD
:1009900000D9091D8165084670470000C66200083D
:1009A00010B5014600208B698A6A4FF0C07453B1BC
:1009B000B3F5005F15D072B1012A0CD0022A0AD01B
:1009C000032A09D104E01AB1012A06D0022A03D170
:1009D000C96AC90100D5012010BDC96AA142FAD077
:1009E00010BD002AF7D0012AF2D0022AF3D0032A40
:1009F000F3D010BD30B50468256825F48025256046
:100A0000046863608368402B036803D099600068C2
:100A1000C26030BD9A600068C16030BD70470000A0
:100A200010B5064C6078002807D101206070FFF7F0
:100A300055FFFFF741FF0020606210BD000000205D
:100A400072B6FEE778B50024009490F83C20012AA5
:100A500019D0012280F83C200A6807230568092A7A
:100A600013D9EE680A3A02EB420293409E43EE60CD
:100A70000B788A680A3B03EB43039A400368DD68FE
:100A80002A43DA6010E0022078BD2E6902EB4202B0
:100A900093409E432E610B788A6803EB43039A4090
:100AA00003681D692A431A614A681F23072A13D263
:100AB00005686E6B521E02EB820293409E436E638A
:100AC0000B790A885B1E92B203EB83039A4003689A
:100AD0005D6B2A435A6327E005680D2A12D22E6BFC
:100AE000D21F02EB820293409E432E630B790A8849
:100AF000DB1F92B203EB83039A4003681D6B2A430A
:100B00001A6311E0EE6A0D3A02EB820293409E43B3
:100B1000EE620B790A880D3B92B203EB83039A4095
:100B20000368DD6A2A43DA62164B0568144A9D425F
:100B300006D10D68122D03D1556845F48005556026
:100B400005689D4218D10B68102B01D0112B13D1D1
:100B5000536843F400035360096810290CD10A4913
:100B60000A4A0968B1FBF2F101EB8101490000E09A
:100B7000491E00910029FBD180F83C40002078BD3F
:100B80000023014000200140FC03002040420F00F0
:100B900070B504004FF0000503D0206C002610B1A2
:100BA00007E0012070BD204600F01CF8666484F860
:100BB0003C60206CC00610D4206C20F4885040F0BB
:100BC000020020642046FFF745FD6664206C20F09B
:100BD000020040F00100206400E0012584F83C6040
:100BE000284670BD10B586B0044614216846FFF74C
:100BF000E7FB1149206888421BD110480021026898
:100C000042F480720260006800F4807005900B4826
:100C10001438026842F002020260006800F002002C
:100C2000059003200090CDE901016946044800F0D9
:100C3000D7F906B010BD0000002001404438024042
:100C4000000402402DE9F0410446876D00F0CAFA25
:100C5000064694F835000025022806D080206065FD
:100C600084F834500120BDE8F0812068016821F04B
:100C7000160101602068416921F080014161206C0A
:100C800008B9A06C20B12068016821F0080101605A
:100C90002068016821F0010101600CE000F0A2FA77
:100CA000801B052807D920206065032084F83500C3
:100CB00084F83450D7E720680068C007EED194F874
:100CC0005C103F208840B860012084F8350084F82B
:100CD00034500020C7E790F83510022903D0802156
:100CE000416501207047052180F8351000680168D2
:100CF00021F0010101600020704700002DE9F84358
:100D000004464FF00009CDF8009063484FF41651A7
:100D1000A56D0068B0FBF1F72E6894F85C10082010
:100D200000FA01F131420FD021680A6852070BD551
:100D30000A6822F004020A6094F85C108840A860F7
:100D4000606D40F00100606594F85C104FF00108A0
:100D500008FA01F0304208D021684969090604D533
:100D6000A860606D40F00200606594F85C1004209B
:100D70008840304208D021680968890704D5A860F6
:100D8000606D40F00400606594F85C1010208840AD
:100D9000304218D021680968090714D5A860206876
:100DA0000168490304D50068000308D5A16C07E079
:100DB0000168C90503D4016821F008010160216CB4
:100DC00009B12046884794F85C10202088403042C2
:100DD00031D021680968C9062DD5A86094F835007E
:100DE00005282068016806D0490347D5006800033C
:100DF0001DD4616C1CE021F016010160206841697E
:100E000021F080014161206C08B9A06C20B12068FC
:100E1000016821F00801016094F85C103F208840CF
:100E2000A86084F8358084F83490216D1FE0E16B70
:100E300009B120468847606D00282BD0606DC0073F
:100E400014D0052084F835002068016821F00101E4
:100E500001600098401C0090B84203D820680068E8
:100E6000C007F6D184F8358084F83490E16C00290D
:100E700010D001B02046BDE8F04308470168C9051D
:100E8000D5D4016821F01001016084F8358084F820
:100E90003490CCE7BDE8F883FC0300202DE9F04155
:100EA000044600F09FF906465CB1022084F8350044
:100EB000002584F834502068016821F001010160A8
:100EC0000DE00120BDE8F08100F08CF9801B0528C1
:100ED00005D920206065032084F83500F2E72068FA
:100EE0000068C007F0D12268116820480140D4E9A9
:100EF00001031843D4E903363343184363691843A5
:100F0000A3691843E3691843236A18430843616AD5
:100F1000042903D1D4E90B13194308431060206856
:100F20004069666A20F0070130460E430127042815
:100F30000CD1A06A0643E06A40B12046FFF730FDBD
:100F400020B14020606584F83570BAE720684661BA
:100F50002046FFF711FD94F85C203F21914081600D
:100F6000656584F835700020ACE700003F8010F024
:100F70002DE9F0410446866D90F8340000250128E3
:100F80000DD0012084F8340094F835700020012F32
:100F900007D084F8340002252846BDE8F0810220FD
:100FA000FBE7022784F8357060652046FFF722FDD5
:100FB00094F85C103F208840B0602068016841F0E0
:100FC00016010160206C20B12068016841F0080121
:100FD00001602068016841F001010160DCE7000068
:100FE0002DE9F84FDFF8BCA10022012503264FF0C0
:100FF0000F090AF1040BAAF1040E00BF0B6805FAF1
:1010000002F42340A34270D10F7907F00307012FA8
:1010100001D0022F16D187684FEA420806FA08FC71
:1010200027EA0C07D1F80CC00CFA08FC4CEA070CB4
:10103000C0F808C04768A7430C79C4F30014944073
:101040003C4344600C79E443A4070AD0C4684FEAE7
:10105000420C06FA0CF7BC438F6807FA0CF72743DB
:10106000C7600C7904F00304022C12D1D40800EB01
:10107000840CDCF820405707FF0E09FA07F824EA31
:101080000804D1F8108008FA07F848EA0408CCF8F8
:10109000208004684FEA420C06FA0CF7BC430F7933
:1010A00007F0030707FA0CF7274307604C6814F4AE
:1010B000403F70D03C4C276847F480472760246845
:1010C00022F0030704F480440094384C07EB040C2E
:1010D000DCF8084897074FEA177809FA08F7BC4385
:1010E000334FB84202D1002724E054E0314FB842D8
:1010F00001D101271EE0304FB84201D1022719E08B
:101100002E4FB84201D1032714E02D4FB84201D130
:1011100004270FE02B4FB84201D105270AE02A4FE0
:10112000B84201D1062705E0284FB84201D1072770
:1011300000E0082707FA08F72743CCF80878DAF820
:1011400000405746D1F804C09C435FEACC2C00D540
:101150001C433C60DBF800405F46D1F804C09C4370
:101160005FEA8C2C00D51C433C60DEF800407746DB
:10117000D1F804C09C435FEA8C3C00D51C433C6022
:10118000084F083F3C68D1F804C09C435FEACC3C60
:1011900000D51C433C60521C102AFFF42FAFBDE861
:1011A000F88F0000083C0140443802400030014004
:1011B000000002400004024000080240000C02400F
:1011C000001002400014024000180240001C0240BF
:1011D0000069084000D0012070470AB18161704762
:1011E0000904FBE70148806870470000F003002015
:1011F00070B5040025D094F83D00002520B984F88E
:101200003C50204600F0B8F8242084F83D002068C7
:10121000016821F0010101602068016841F400418A
:1012200001602068016821F40041016000F024FAA7
:101230004D4A6168914201D84C4900E04C498842CE
:1012400001D2012070BD4B492368B0FBF1F15E680B
:1012500026F03F060E435E606368934206D94FF462
:10126000967359434FF47A73B1FBF3F12368491C29
:101270001E6A26F03F06314319626168914210D818
:101280004900401EB0FBF1F2521CC2F30B02042ACB
:1012900001D2042022E0B0FBF1F0401CC0F30B00AF
:1012A0001CE0A268F2B301EBC10303EB0116431E7D
:1012B000B3FBF6F35B1C43F480431B0549D092B3A8
:1012C00001EBC10202EB0111401EB0FBF1F0401C2A
:1012D000C0F30B0040F4804040F400402168CA692C
:1012E0004CF6FF739A431043C861D4E907100143D9
:1012F0002068026822F0C00211430160D4E90301B2
:1013000001432068826848F2FF339A4311438160A9
:10131000D4E9050108432168CA6822F0FF0210439E
:10132000C86001E00EE016E02068016841F00101AC
:1013300001602564202084F83D00256384F83E5038
:10134000002070BD01EB4106431EB3FBF6F35B1CAE
:10135000B3E70120C2E701EB4101401EB0FBF1F011
:10136000401CC0F30B00B7E7A086010080841E007C
:1013700000093D0040420F00F0B587B0044614213B
:101380006846FFF71DF81D492068884233D11C4884
:101390000024016841F004010160016801F00401CA
:1013A0000591016841F0010101600068122500F01B
:1013B000010005904FF40070CDE9000502AA032654
:1013C000042782E8D00069460E48FFF709FEB801FD
:1013D000CDE9000502AA694682E8D0000A48FFF775
:1013E000FFFD07481030016841F40001016000680A
:1013F00000F40000059007B0F0BD0000005C004064
:101400003038024000080240000002400248816873
:101410000278114481607047F00300200B4810B53A
:10142000016841F400710160016841F4806101606C
:10143000016841F480710160032000F071F803201D
:1014400000F006F800F024F8002010BD003C024037
:1014500070B50D4D04464FF47A712878B1FBF0F069
:101460000A490968B1FBF0F000F00CFB48B9102CF8
:1014700007D200222146501E00F032F800206C6096
:1014800070BD012070BD0000F0030020FC030020AF
:101490000B4882B0016841F480410160006800F4AB
:1014A000804000900648001F016841F080510160B3
:1014B000006800F080500090052002B000F030B8C5
:1014C00044380240002809DB00F01F02012191404E
:1014D0004009800000F1E020C0F8001170470000D2
:1014E000F0B40E4B1B680C46C3F30223C3F107058F
:1014F000042D00D90425191D072901D2002300E07D
:10150000DB1E012606FA05F1491E214099409E4046
:10151000761E16403143F0BC04F0A8B80CED00E094
:10152000064900F0070208684FF6FF03184040EA3A
:101530000220034A10430860704700000CED00E0F1
:101540000000FA052DE9F0470E46050065D0DFF8EA
:101550001481D8F80000F7B200F00700B04207D2BB
:1015600088F80070D8F8000000F00700B04254D1AD
:1015700028683D4C810712D5400703D5206840F408
:10158000E05020602878000703D5206840F46040D0
:1015900020602068A96820F0F000084320602878C7
:1015A000C0072DD0304968680839012812D00228B8
:1015B00013D0032811D00968890700292DDA216882
:1015C00021F0030101432160FFF70CFE814641F247
:1015D000883A0EE009688903EFE709688901ECE7BA
:1015E000FFF700FEA0EB0901514502D90320BDE839
:1015F000F0872068696800F00C00B0EB810FEFD134
:10160000D8F80010404601F00701B14207D9077031
:10161000006800F00700B04201D00120E7E7287819
:10162000400705D52068E96820F4E05008432060B1
:101630002878000706D52068296920F4604040EA30
:10164000C100206000F038F82168084AC1F3031196
:10165000515CC8400649086006480068FFF7F8FE7C
:101660000020C4E7003C024008380240CE62000877
:10167000FC030020F40300200448054900680968C1
:10168000044AC1F38221515CC8407047FC0300202A
:1016900008380240DE62000804480549006809680D
:1016A000044AC1F34231515CC8407047FC0300203A
:1016B00008380240DE620008154810B5006810F0D6
:1016C0000C02144813D04110042A0FD0082A0ED15E
:1016D0000F4C241F2268236802F03F025B0207D5EB
:1016E0002068C0F38810A0FB010106E0084610BD89
:1016F0002168C1F38811A1FB00010023FEF7DCFD86
:101700002168C1F30141491C4900B0FBF1F010BD53
:10171000083802400024F4002DE9F84F04006ED090
:101720002078DFF84C93C007A9F104054AD009F1ED
:1017300004000168C1F38101012908D00068C0F3E9
:10174000810002280AD1D9F80000400206D5286895
:10175000800337D560680028E1D033E06068B0F5D9
:10176000803F10D0B0F5A02F286810D020F4803032
:101770002860286820F4802028606068A8B1FFF7FE
:1017800031FD06460DE0286840F48030F4E740F46F
:1017900080202860F7E700BFFFF724FD801B642846
:1017A00073D828688003F7D50CE0FFF71BFD0646C9
:1017B00005E000BFFFF716FD801B6428F0D82868FD
:1017C0008003F7D42078DFF8AC8280074FF0000A5E
:1017D0003ED5A748001D016811F00C0F08D0006825
:1017E000C0F3810002280BD1D9F80000400207D4D1
:1017F0002868800716D5E068012800D112E033E19F
:10180000E068B8B10120C8F80000FFF7EBFC06461D
:1018100005E000BFFFF7E6FC801B0228C0D828685F
:101820008007F7D52868216920F0F80040EAC10058
:1018300028600DE0C8F800A0FFF7D4FC064604E0DD
:10184000FFF7D0FC801B02281FD828688007F7D438
:101850002078000722D5864F87486169703771B1BB
:1018600001210160FFF7BEFC064604E0FFF7BAFC69
:10187000801B022809D838688007F7D50EE0C0F829
:1018800000A0FFF7AFFC064605E082E0FFF7AAFCE8
:10189000801B02287DD838688007F7D4207840075D
:1018A00068D5DFF8CCB100270BF13C0BDBF800006A
:1018B000C0000BD4DBF8001041F08051CBF80010D1
:1018C000DBF80000012700F0805000906B4E30687C
:1018D000C00510D4306840F480703060FFF782FC9F
:1018E000009005E0FFF77EFC0099401A022850D8CE
:1018F0003068C005F6D55E4EA0686C3601280FD062
:101900000528306810D020F001003060306820F0E9
:1019100004003060A068B8B1FFF764FC00900FE0ED
:10192000306840F00100F4E740F004003060F7E771
:10193000FFF758FC0099411A41F28830814266D87D
:1019400030688007F4D50EE0FFF74CFC009007E00C
:10195000FFF748FC0099411A41F28830814256D87D
:1019600030688007F4D42FB1DBF8001021F08051EB
:10197000CBF80010A069C8B33D49091D0968C1F33F
:10198000810102294AD00228504607D0C8F86000D9
:1019900000E03CE0FFF726FC04463BE04746C8F881
:1019A0006000FFF71FFC064605E000BFFFF71AFCCA
:1019B000801B02282BD828688001F7D4D4E90701BE
:1019C0000843A16A2E4A490802EB0141626A41EAD2
:1019D0008211084394F82C1040EA0161C9F8001004
:1019E00001203866FFF7FEFB044606E03EE000BF3C
:1019F000FFF7F8FB001B022809D828688001F7D5FB
:101A000034E000BFFFF7EEFB001B022802D90320E1
:101A1000BDE8F88F28688001F4D427E00128F7D0CA
:101A2000D9F80000E26900F4800191421CD1226AD9
:101A300000F03F01914217D147F6C071626A014040
:101A4000B1EB821F10D1A26A4FF0FF3300F4403196
:101A500003EB5202B1EB024F06D194F82C1000F0C8
:101A60007060B0EB016F01D00120D1E70020CFE71B
:101A70000438024000004742800E47420070004098
:101A80000000FFFF10B5401EB0F1807F01D30120A0
:101A900010BD4FF0E02460610F21601703F0E6FDF8
:101AA0000020A06107202061002010BD7047704712
:101AB00010B590F83C20012A22D0012280F83C2069
:101AC000CA688C6822F4407222434C6822F4806217
:101AD00022430C6822F4006222430C6922F48052F3
:101AE00022434C6922F400522243C969002322F4A4
:101AF00080420A4301684A6480F83C30002010BDEF
:101B0000022010BD70B590F83C20012A32D001248B
:101B100080F83C40022280F83D2003685A689D68A6
:101B200022F070060A6832435A60134B02689A42E8
:101B300014D0B2F1804F11D0104B9A420ED0104BFE
:101B40009A420BD00F4B9A4208D00F4B9A4205D0C5
:101B50000E4B9A4202D00E4B9A4204D1496825F0AE
:101B600080031943916080F83D40002180F83C10CB
:101B7000084670BD022070BD000001400004004016
:101B800000080040000C00400004014000400140FB
:101B90000018004010B5040003D094F83D0010B1C7
:101BA00007E0012010BD002084F83C00204600F032
:101BB0001FF8022084F83D00211D206803F062F820
:101BC000012084F8460084F83E0084F83F0084F841
:101BD000400084F8410084F8420084F8430084F80F
:101BE000440084F8450084F83D00002010BD00004A
:101BF00008B54049026840488A4207D1016841F06F
:101C000001010160006800F001003AE03A493B4BF5
:101C1000091F9A420ED1086840F010000860086859
:101C2000002200F01000009001213620FFF758FC40
:101C300036204FE0324B9A420ED1086840F0200027
:101C400008600868002200F0200000900121372081
:101C5000FFF746FC37203DE02A4B9A4207D1016846
:101C600041F002010160006800F002002BE0264B09
:101C70009A4208D1016841F480310160006800F4A3
:101C80008030009008BD214B9A4207D1016841F491
:101C900000310160006800F40030F2E71C4B9A420A
:101CA00007D1016841F480210160006800F48020C0
:101CB000E7E71848824211D1086840F04000086008
:101CC000086800F040000090002201212B20FFF75F
:101CD00007FC2B20BDE80840FFF7F4BB0E4882420A
:101CE000D0D1086840F480700860086800F4807003
:101CF000C7E70000000001404438024000100040E7
:101D00000014004000040140004001400044014034
:101D100000480140001800400020004090F83D10AD
:101D2000012901D001207047022180F83D1001688F
:101D3000CA6842F00102CA6000681149884214D0A2
:101D4000B0F1804F11D00F4988420ED00E49884221
:101D50000BD00E49884208D00D49884205D00D4964
:101D6000884202D00C49884204D1816801F0070101
:101D7000062903D0016841F001010160002070478D
:101D8000000001400004004000080040000C00403A
:101D900000040140004001400018004070B50446B6
:101DA00090F83C000025012817D0012684F83C60FB
:101DB000022084F83D002068826822F0770222F435
:101DC0007F4282600868502838D00DDC20284FD030
:101DD00005DC90B3102811D14AE0022070BD3028F4
:101DE00046D040280AD13BE060282FD070280DD083
:101DF000B0F5805F03D0B0F5005F12D0012584F804
:101E00003D60002084F83C00284670BDCB68D1E9D5
:101E10000121206802F0A7FF2068816841F0770166
:101E200009E0CB68D1E90121206802F09CFF20681D
:101E3000816841F480418160E1E719E0CA6849683E
:101E4000206803F065F85021206806E0CA684968F8
:101E5000206803F06EF86021206802F08EFFCEE764
:101E6000CA684968206803F053F840212068F4E705
:101E7000226801461046F0E72DE9F0410D460400C6
:101E800003D094F83D0018B108E00120BDE8F081CE
:101E9000002084F83C00204600F040F8022084F83E
:101EA0003D002068816844F2070291438160211D52
:101EB000206802F0E7FE226890689169166A2B6834
:101EC000AF69034340F20330814341EA0721A86828
:101ED000EF6908434FF6FC418843E96840EA072070
:101EE000014328692F6A000140EA07300843696806
:101EF0006D6926F0AA0646EA051529439360226813
:101F0000906154F8460B0162012004F81F09E07546
:101F10002076E0762077A0750020B7E7F0B587B08F
:101F2000044614216846FEF74BFA4649236800240C
:101F3000444810390225444A444EB3F1804F19D029
:101F4000434FBB4246D1026842F002020260006881
:101F500000F002000590086840F002000860086880
:101F6000694600F00200059030200090CDE9015450
:101F7000304663E0036843F001030360006800F04B
:101F800001000590086840F001000860086800F052
:101F900001000590086840F0020008600868012709
:101FA00000F0020005904FF400400090CDE901548C
:101FB000CDE9034769461046FFF712F80820009064
:101FC000CDE90154CDE9034769463046FFF708F8EB
:101FD00007B0F0BD1F4EB34217D1026842F00402B1
:101FE0000260006800F004000590086840F00800F6
:101FF00008600868694600F0080005904FF44050FA
:102000000090CDE90154144818E0144EB342DFD1DA
:10201000036843F008030360006800F008000590BF
:10202000086840F0010008600868694600F0010097
:10203000059003200090CDE901541046CDE90345F9
:10204000C4E70000403802400000024000040240A3
:102050000004004000080040000C0240000C00405A
:1020600070B590F83E60044690F83F5090F84230CA
:1020700090F84320022021B104290ED0012E1BD15B
:1020800014E0012E18D1012B16D184F83E0084F8FB
:10209000420001220021206820E0012D0CD1012AFC
:1020A0000AD184F83F0084F8430014E0012D03D1E5
:1020B000012B01D1012A01D0012070BD84F83E001E
:1020C00084F83F0084F8420084F843000122002194
:1020D000206802F03BFE01220421206802F036FE57
:1020E0002068016841F001010160002070BD704767
:1020F00070B50446006801694FF00005C9438907BF
:1021000015D4C168C943890711D4E91E01610120B2
:102110002077206880698007204602D0FFF7E7FF1C
:1021200004E000F017F9204600F0A9F925772068AF
:102130000169C943490717D4C168C943490713D482
:102140006FF004010161022020772068806910F49B
:10215000407F204602D0FFF7CAFF04E000F0FAF803
:10216000204600F08CF9257720680169C9430907EA
:1021700016D4C168C943090712D46FF00801016180
:10218000042020772068C0698007204602D0FFF72E
:10219000AEFF04E000F0DEF8204600F070F925778D
:1021A00020680169C943C90617D4C168C943C90673
:1021B00013D46FF010010161082020772068C069F6
:1021C00010F4407F204602D0FFF791FF04E000F0BA
:1021D000C1F8204600F053F9257720680169C9430A
:1021E000C90708D1C168C943C90704D1891E016163
:1021F000204600F0BFF920680169C943090609D4E7
:10220000C168C943090605D46FF080010161204609
:10221000FFF74CFC20680169C943490609D4C1682D
:10222000C943490605D46FF040010161204600F022
:1022300039FA20680169C94389060BD4C168C943CA
:10224000890607D46FF0200101612046BDE8704087
:10225000FFF72DBC70BD0000F0B587B00446142117
:102260006846FEF7ADF8324D23680022314902245A
:102270003148AB4210D10B6843F010030B60096882
:1022800001F0100105914FF4D4410091CDE90142D4
:102290000121CDE9032135E0284F0325BE15BB42BE
:1022A00012D1086840F00400086008680096CDE983
:1022B000014200F00400CDE9045069460392204831
:1022C000FEF78EFE07B0F0BD1E4FBB4209D10B6872
:1022D00043F010030B60096801F0100105916021C3
:1022E0001EE0194F1948BB420ED10B6843F00203A0
:1022F0000B6009680096CDE9014201F00201CDE9C9
:10230000045103926946DBE7114EB342DAD10B6800
:1023100043F002030B60096801F002010591711599
:102320000091CDE90142CDE903256946C8E70000E7
:10233000000001403038024000100240000401401B
:1023400000080240004001400044014000040240F7
:1023500000480140704770B5044690F83C000026E4
:102360000D4601280FD0012084F83C006AB1042AF0
:102370001DD0082A2FD00C2A3FD00126002084F837
:102380003C00304670BD022070BD206802F0FEFCAB
:102390002068816941F0080181612068816921F02C
:1023A00004018161206881692A69114311E0206874
:1023B00002F01CFD2068816941F4006181612068A0
:1023C000816921F480618161206881692A6941EA1B
:1023D00002218161D2E7206802F03EFD2068C169D8
:1023E00041F00801C1612068C16921F00401C161A7
:1023F0002068C1692A69114311E0206802F060FD7C
:102400002068C16941F40061C1612068C16921F49B
:102410008061C1612068C1692A6941EA0221C16104
:10242000ACE710B5040003D094F83D0010B107E00C
:10243000012010BD002084F83C00204600F01EF86A
:10244000022084F83D00211D206802F01BFC0120C1
:1024500084F8460084F83E0084F83F0084F8400089
:1024600084F8410084F8420084F8430084F8440072
:1024700084F8450084F83D00002010BD7047704787
:1024800030B500250446022249B1042912D008299A
:102490004CD094F84100012853D0012030BD94F86D
:1024A0003E000128F9D184F83E202068C26842F03D
:1024B000020209E094F83F000128EED184F83F20A1
:1024C0002068C26842F00402C2600122206802F063
:1024D0003DFC21492068214A884201D0904203D125
:1024E000436C43F4004343642068884213D0B0F146
:1024F000804F10D01A4988420DD01A4988420AD01C
:102500001949884207D0904205D01849884202D024
:102510001749884204D1816801F00701062903D0D8
:10252000016841F001010160284630BD94F8400087
:102530000128B2D184F840202068C26842F0080225
:10254000C2E784F841200C2901D00125ECE720687E
:10255000C26842F01002B7E70000014000040140E9
:102560000004004000080040000C00400040014012
:10257000001800402DE9F04100684649884246D1E4
:10258000454901F116000A78012A02D10268521C5D
:1025900002604978012902D14168491C41603E4CE2
:1025A0001E3C206A401C2062206A0A21B0FBF1F226
:1025B00001FB12000126002508B9A6742562606A95
:1025C000401C60624FF4004841463448FEF700FE6C
:1025D000F8B1A571A573A572314F4FF4006138466B
:1025E000FEF7F6FD28B3E571E573E5724FF480411F
:1025F0003846FEF7EDFD60B325722574257341461C
:102600003846FEF7E5FD70B3657265746573BDE825
:10261000F081A079401CC0B2A071072807D3A07A2E
:1026200008B1A571D8E7A673A571A672D4E7A57302
:10263000D2E7E079401CC0B2E071072807D3E07A06
:1026400008B1E571D2E7E673E571E672CEE7E573AE
:10265000CCE7207A401CC0B22072072808D3207B28
:1026600010B12572CBE705E0267425722673C6E704
:102670002574C4E7607A401CC0B26072072807D393
:10268000607B08B16572C2E7667465726673BEE707
:102690006574BCE7001000401E00002000100240DE
:1026A000000C02407047704710B50446006840694E
:1026B00094F83D10C0F3C010212911D180B12068D9
:1026C000143050E8001F21F0800140E80012002A79
:1026D000F5D1606B08B1FEF7B5FA204602F050FD67
:1026E0002068406994F83E10C0F38010222911D16F
:1026F00080B12068143050E8001F21F0400140E80C
:102700000012002AF5D1A06B08B1FEF79BFA204613
:1027100002F00FFD002010BD70470000F8B5016801
:1027200004460868CA684B6910F00F0F4FF00005A7
:1027300059D003F0010602F49077374365D0C10702
:1027400005D0D10503D5216C41F001012164410779
:1027500005D5D90703D0216C41F00201216481071E
:1027600005D5D90703D0216C41F00401216401078C
:1027700007D502F02001314303D0216C41F008015C
:102780002164216C00293AD0800604D5900602D538
:10279000204602F003FD20684069216CC0F38010E0
:1027A000090700D460B3204602F0C3FC20684069EA
:1027B000400621D52068143050E8001F21F0400168
:1027C00040E80012002AF5D1A06BA8B16C49016560
:1027D000A06BFEF780FA002811D0A06B016D01B04C
:1027E000BDE8F040084783060FD593060DD5204677
:1027F000BDE8F84002F0D2BC2046FFF78DFFF8BDDF
:102800002046FFF789FF2564F8BD266B2023012EA3
:1028100079D1C60677D5D60675D508684868009080
:102820004869400640D5A16B086840680004000C68
:10283000EAD0A28D8242E7D9E085C869B0F5807FF1
:102840002DD020680C3050E8001F21F4807140E842
:102850000012002AF5D12068143050E8001F21F042
:10286000010140E80012002AF5D12068143050E838
:10287000001F21F0400140E80012002AF5D184F841
:102880003E30256320680C3050E8001F21F0100115
:1028900040E80012002AF5D1A06BFEF7D3F9A08D15
:1028A000E18D401A81B229E0A08DE18D401A81B2FC
:1028B000E08D0028A8D00029A6D020680C3050E870
:1028C000002F22F4907240E80026002EF5D12068F7
:1028D000143050E8002F22F0010240E80026002EBC
:1028E000F5D184F83E30256320680C3050E8002F85
:1028F00022F0100240E80023002BF5D12046FFF71C
:10290000D2FEF8BDFFE705062BD5150629D594F8AC
:102910003D002128F5D1A068B0F5805F01D1206984
:10292000B0B1206A411C2162216800784860E08CC7
:10293000401E0004000CE084E3D12068C16821F04F
:102940008001C1602068C16841F04001C160D8E7E2
:10295000206A0088C0F308004860206A801C20625A
:10296000E5E74006CDD55006CBD5CA68204622F013
:102970004002CA6084F83D3000F00CFBC1E7000063
:10298000F14F000870B5040004D094F83D00002514
:1029900010B106E0012070BD84F83C50204600F0E4
:1029A00023F8242084F83D002068C16821F40051F8
:1029B000C160204602F052FC2068016921F4904178
:1029C00001612068416921F02A0141612068C168E4
:1029D00041F40051C1602564202084F83D0084F852
:1029E0003E00002070BD00002DE9F04F87B0044686
:1029F00014216846FDF7E4FCF848DFF8DC83103862
:102A0000D4F800C0F54A022103270823DFF8D0E3F9
:102A1000002506154FF040094FF0006AC4454CD11F
:102A2000D2F800C04CF4002CC2F800C0126802F4C6
:102A300000220592026842F00402026000680493DA
:102A400000F004000590B8028DE8A30069467046C6
:102A5000FEF7C6FAE44FE3483860C7E901A5C7E9C5
:102A600003567D61F001BD61C7E9075038467D62BC
:102A7000FEF714FA08B1FDF7E3FFA763BC63DA4F72
:102A8000D84860373030C7F80890C7E903567D61F1
:102A9000BD61FD613D627D62C7E9000A3846FEF70F
:102AA000FDF908B1FDF7CCFF676300220221342055
:102AB000BC63FEF715FD34206AE0DFF83083C445BF
:102AC0006BD1D2F800C04CF4801CC2F800C0126870
:102AD00002F480120592026842F004020260026869
:102AE00002F004020592026842F0080202600068E7
:102AF0008B4600F0080005904FF48050CDE9000BA4
:102B00000DF1080C98468CE8A00169467046FEF766
:102B100067FA0420CDE9000B0DF1080B69468BE83C
:102B2000A001B348FEF75CFAAF4FAE48C03730386B
:102B30003860C7E901A5C7E903567D614FF48030CD
:102B4000BD61C7E9075038467D62FEF7A7F908B1B5
:102B5000FDF776FFA763BC63A64FA248C7F80890AD
:102B6000C7E903567D61BD61FD613D6278307D62DC
:102B7000C7E9000A3846FEF791F908B1FDF760FF92
:102B80006763002202213520BC63FEF7A9FC3520D3
:102B9000FEF798FC07B0BDE8F08FDFF85C824FF0DD
:102BA000070BC4455AD18D4AA846121D136843F03D
:102BB00010031360126802F010020592026842F0DE
:102BC00002020260006800F002000590C0208DE85B
:102BD000A30869468948FEF703FADFF818B2884966
:102BE0000BF1600B5846CBF80010C0E901A5C0E915
:102BF0000356CBF81450CBF81850CBF81C50CBF838
:102C000020505746CBF82450FEF748F908B1FDF79D
:102C100017FF784D7A48C4F838B0C0357830CBF813
:102C2000384085E88102C5E90386C5F81480C5F8F7
:102C30001880C5F81C80C5F820802846C5F8248077
:102C4000FEF72CF908B1FDF7FBFE656300220221B7
:102C50002520AC63FEF744FC252099E7DFF8A4812A
:102C6000C44517D1136843F400331360126802F4AB
:102C700000320592026842F008020260006800F02B
:102C80000800059060208DE8A30869465848FEF7C3
:102C9000A7F97FE7DFF87081C4454AD1136843F490
:102CA00080231360126802F480220592026842F0C9
:102CB00008020260006800F0080005904FF44070C0
:102CC0008DE8A30869464A48FEF78AF945484F4F00
:102CD00018383860C7E901A5C7E903567D61BD61B1
:102CE000FD613D6238467D62FEF7D8F808B1FDF718
:102CF000A7FEA763BC63454F3A4860371830C7F852
:102D00000890C7E903567D61BD61FD613D627D624A
:102D1000C7E9000A3846FEF7C1F808B1FDF790FE92
:102D20006763002201212720BC63FEF7D9FB27201F
:102D30002EE7374A9445ACD1284A121DD2F800C07C
:102D40004CF0200CC2F800C0126802F0200205927C
:102D5000026842F0040202600068049300F004007C
:102D60000590C0208DE8A30069467046FEF738F94B
:102D7000264F2348C037183838604FF02068C7E91D
:102D80000185C7E903567D61BD61FD613D6238463D
:102D90007D62FEF783F808B1FDF752FEA763BC63BE
:102DA0001C4F1748C7E903567D61BD61FD613D6257
:102DB00060307D6287E801033846FEF76FF808B19E
:102DC000FDF73EFE6763002211464720BC63FEF715
:102DD00087FB4720DCE60000004C00404038024002
:102DE00000080240406002405C0A002000500040A1
:102DF000000C02407C0B0020001001400004024047
:102E00004064024000440040004800409C0C002008
:102E100000140140BC0D00202DE9F84F044690F845
:102E20003E009A4616460D46202853D1FDB1F6B114
:102E300094F83C0001284DD0012084F83C00002784
:102E40002764222084F83E002763FEF7CBF9A6858D
:102E50008146E685A0684FF48058404501D120693D
:102E600040B12E465FF0000584F83C7027E0012059
:102E7000BDE8F88F0026F7E74B46002220212046C8
:102E8000CDF800A002F0BAFA08B10320F0E726B1AD
:102E9000A06840451BD038B108E020684068C0F306
:102EA000080025F8020B07E0206980B1206840681F
:102EB00000F07F0006F8010BE08D401EE085E08DFC
:102EC0000028D9D1202084F83E000020D0E72068D7
:102ED0004068EFE70220CBE790F83E30202B0ED180
:102EE00059B152B190F83C30012B08D0012380F841
:102EF0003C300023036302F037BA01207047022000
:102F0000704770477047000070B5044690F83D0068
:102F1000202836D191B38AB394F83C00012830D0F0
:102F2000012084F83C002162A284E284002525640B
:102F3000212084F83D00636B1348D863636B13480A
:102F40001864636B1248D864606B13460565266885
:102F5000606B321DFEF70CF821686FF040000860CE
:102F600084F83C502068143050E8001F41F0800184
:102F700040E80012002AF5D1002070BDFFE70120D3
:102F8000FBE70220F9E70000E7500008295100089C
:102F90000150000870477047FEE70000064B10B56F
:102FA0005C78C2F30723D2B214B103700A7010BD6B
:102FB0000B70027010BD00003C000020081A00EEEB
:102FC000100A1548B0EE002AB8EEC00AD0ED080A83
:102FD000A0F5007130EE601AD1ED0F1A21EE211A22
:102FE000D1ED101A01EE801AF0EE401A40EEC21A2E
:102FF00090ED092A71EE821A91ED112A02EE211A42
:10300000D0ED0A1A203031EE211A80EC030ABDEE11
:10301000C10A10EE100A704758020020081A00EE8C
:10302000100A1548B0EE002AB8EEC00AD0ED100A1A
:10303000A0F5007130EE601AD1ED171A21EE211AB9
:10304000D1ED181A01EE801AF0EE401A40EEC21AC5
:1030500090ED112A71EE821A91ED192A02EE211AD1
:10306000D0ED121A403031EE211A80EC030ABDEE89
:10307000C10A10EE100A704758030020081A00EE2B
:10308000100A1548B0EE002AB8EEC00AD0ED0C0ABE
:10309000A0F5007130EE601AD1ED171A21EE211A59
:1030A000D1ED181A01EE801AF0EE401A40EEC21A65
:1030B00090ED0D2A71EE821A91ED192A02EE211A75
:1030C000D0ED0E1A303031EE211A80EC030ABDEE3D
:1030D000C10A10EE100A7047D802002010B5022075
:1030E00001F03EFD104B5860D9680844D8609968DB
:1030F00000F084F80D4A9060196802F0A6FA90601A
:10310000D3E90210401AFDF739FB052801DA002146
:1031100005E091685868FFF751FF01469060BDE8EF
:103120001040032001F0B2B8D8000020580200205F
:1031300010B5022001F014FD124B586293ED0A0AFB
:10314000F8EEC00A93ED0B0AB8EEC00A00F09CF846
:103150000D4A9062196A02F078FA9062D3E90A1077
:10316000401AFDF70BFB062801DA002105E0916A01
:10317000586AFFF753FF01469062BDE810400320F4
:1031800001F084B8D80100205803002070B5022057
:1031900001F0E6FC144B154C154D5861D4ED000AB6
:1031A00095ED000A00F0B4F8124A9061196902F036
:1031B0004CFA906195ED000AD4ED000A01460E4CE0
:1031C00030EE600AB0EEC00A10EE100AA04201DA3A
:1031D000002104E05869FFF751FF01469061BDE806
:1031E0007040032001F052B858010020E403002091
:1031F000E0030020D80200209A99193E081A00EE38
:10320000100A1B481B4AB8EEC00AD0ED050A70EE42
:10321000800A10EE901AC0ED050A914203DDDFED41
:10322000160AC0ED050A10EE901A144A914203D90D
:10323000DFED130AC0ED050A1249D0ED051AD1EDF4
:103240000C0A91ED0D1A60EE800A41EE210A90ED14
:10325000041AD1ED0E1A30EE411A41EE810AC0ED8A
:10326000060A80ED040ABDEEE00A10EE100A70476F
:103270005802002000409C4500409C4500409CC5F1
:1032800000409CC5580000201B4830EEC00A1B4A75
:10329000D0ED0D0A70EE800A10EE901AC0ED0D0A06
:1032A000914203DDDFED160AC0ED0D0A10EE901A13
:1032B000144A914203D9DFED140AC0ED0D0A1349F7
:1032C000D0ED0D1AD1ED140A91ED151A60EE800AB9
:1032D00041EE210A90ED0C1AD1ED161A30EE411A8A
:1032E00041EE810AC0ED0E0A80ED0C0ABDEEE00A47
:1032F00010EE100A704700005803002000409C4563
:1033000000409C4500409CC500409CC558010020E1
:103310001B4830EEC00A1B4AD0ED090A70EE800A45
:1033200010EE901AC0ED090A914203DDDFED160A96
:10333000C0ED090A10EE901A144A914203D9DFED4C
:10334000140AC0ED090A1349D0ED091AD1ED140A87
:1033500091ED151A60EE800A41EE210A90ED081AEF
:10336000D1ED161A30EE411A41EE810AC0ED0A0A7B
:1033700080ED080ABDEEE00A10EE100A704700006A
:10338000D802002000409C4500409C4500409CC560
:1033900000409CC5D8000020081A00EE100A174A09
:1033A000B0EE002AB8EEC00AD2ED1F0AA2F5C07135
:1033B00001F5007030EE601AD1ED091A21EE211AE4
:1033C000D1ED0A1A01EE801AF0EE401A40EEC21A50
:1033D00090ED002A71EE821A91ED0B2A02EE211A6D
:1033E000D0ED011A31EE211AC0EC020A82ED1F0A5B
:1033F000BDEEC10A10EE100A70470000D80100208F
:10340000081A00EE100A1548B0EE002AB8EEC00AFD
:10341000D0ED070AA0F5007130EE601AD1ED111A57
:1034200021EE211AD1ED121A01EE801AF0EE401AA7
:1034300040EEC21A90ED082A71EE821A91ED132A1D
:1034400002EE211AD0ED091A1C3031EE211A80EC5F
:10345000030ABDEEC10A10EE100A7047580300209F
:10346000081A00EE100A1548B0EE002AB8EEC00A9D
:10347000D0ED030AA0F5007130EE601AD1ED111AFB
:1034800021EE211AD1ED121A01EE801AF0EE401A47
:1034900040EEC21A90ED042A71EE821A91ED132AC1
:1034A00002EE211AD0ED051A0C3031EE211A80EC13
:1034B000030ABDEEC10A10EE100A7047D8020020C0
:1034C00010B5032001F04CFB104B5867D96F08442E
:1034D000D867996F00F084F80D4C6066196F02F0A0
:1034E000B4F86066D3E91E10401AFDF747F90528C5
:1034F00001DA002105E0616E586FFFF74DFF0146CC
:103500006066BDE81040022000F0C0BE58000020F8
:10351000D801002010B5032001F022FB124B5861A6
:1035200093ED060AF8EEC00A93ED070AB8EEC00A5A
:1035300000F09CF80D4A5060196902F086F850605E
:10354000D3E90610401AFDF719F9062801DA00211F
:1035500005E051685869FFF753FF01465060BDE828
:103560001040022000F092BED80100205803002035
:1035700070B5032001F0F4FA144B154C154DD860CA
:10358000D4ED000A95ED000A00F0B4F8124A506735
:10359000996802F05AF8506795ED000AD4ED000AD8
:1035A00001460E4C30EE600AB0EEC00A10EE100A72
:1035B000A04201DA002104E0D868FFF751FF01467C
:1035C0005067BDE87040022000F060BE5801002046
:1035D000E4030020E0030020580200209A99193EDD
:1035E000081A00EE100A1B481B4AB8EEC00AD0EDBC
:1035F0001C0A70EE800A10EE901AC0ED1C0A91426F
:1036000003DDDFED160AC0ED1C0A10EE901A144A15
:10361000914203D9DFED130AC0ED1C0A1249D0ED27
:103620001C1AD1ED060A91ED071A60EE800A41EEF0
:10363000210A90ED1B1AD1ED081A30EE411A41EE25
:10364000810AC0ED1D0A80ED1B0ABDEEE00A10EEF6
:10365000100A7047D801002000409C4500409C455E
:1036600000409CC500409CC5580000201B4830EE1F
:10367000C00A1B4AD0ED040A70EE800A10EE901AC0
:10368000C0ED040A914203DDDFED160AC0ED040A25
:1036900010EE901A144A914203D9DFED140AC0EDDE
:1036A000040A1349D0ED041AD1ED0E0A91ED0F1A58
:1036B00060EE800A41EE210A90ED031AD1ED101A56
:1036C00030EE411A41EE810AC0ED050A80ED030A91
:1036D000BDEEE00A10EE100A70470000580300200B
:1036E00000409C4500409C4500409CC500409CC556
:1036F000580100201C4830EEC00A1C4AD0ED000AD8
:1037000070EE800A10EE901AC0ED000A914203DDBF
:10371000DFED170AC0ED000A10EE901A154A91422B
:1037200003D9DFED150AC0ED000A1449D0ED001AE7
:1037300001F5C072D1ED0E0A91ED0F1A60EE800A0C
:1037400041EE210A92ED1F1AD1ED101A30EE411A06
:1037500041EE810AC0ED010A82ED1F0ABDEEE00ACA
:1037600010EE100A70470000D802002000409C456F
:1037700000409C4500409CC500409CC5D8000020EE
:1037800000210A464318491C89B2DA700B29F9D383
:103790008021817002704270704700000F4810B5A0
:1037A000C1788278914217D10D4982790A70C27925
:1037B0004A70027A8A70827ACA70C27A0A71007B71
:1037C0004871002088710846FCF7EDFD044908396E
:1037D000086004490120087010BD00009C0E002004
:1037E000D00300200200002000210A464318491C93
:1037F00089B2DA700B29F9D380218170027042708E
:10380000704700000F4810B5C1788278914217D1F7
:103810000D4982790A70C2794A70027A8A70827A76
:10382000CA70C27A0A71007B48710020887108460C
:10383000FCF7B9FD04490F394860044901200870BC
:1038400010BD0000AA0E0020D703002003000020B6
:103850007FB5002415480094019402941249039402
:1038600001604FF48031C0E901140461047680F8EE
:1038700020400F49C0E90A140125C561C46080F8E1
:1038800030404561FDF784F908B1FDF7D9F808200B
:10389000CDE90005694602940448FDF7D3F80028F5
:1038A00001D0FDF7CDF87FBD0020014000040020CD
:1038B0000100000F314808B5016841F48001016042
:1038C000016801F480010091016841F40011016078
:1038D0000068002200F40010009001210B20FDF789
:1038E000FFFD0B20FDF7EEFD002201210C20FDF76E
:1038F000F7FD0C20FDF7E6FD002201210D20FDF76C
:10390000EFFD0D20FDF7DEFD002201210E20FDF769
:10391000E7FD0E20FDF7D6FD002201210F20FDF767
:10392000DFFD0F20FDF7CEFD002201212F20FDF746
:10393000D7FD2F20FDF7C6FD002201213920FDF71C
:10394000CFFD3920FDF7BEFD002201213A20FDF711
:10395000C7FD3A20FDF7B6FD002201214520FDF705
:10396000BFFD4520FDF7AEFD002201214620FDF7F9
:10397000B7FDBDE808404620FDF7A4BD3038024041
:103980002DE9F04186B014216846FCF719FD47483F
:103990000024016841F010010160016801F010018C
:1039A0000591016841F080010160016801F080012A
:1039B0000591016841F004010160016801F0040112
:1039C0000591016841F001010160016801F0010108
:1039D0000591016841F002010160016801F00201F6
:1039E0000591016841F0080101600068304E00F067
:1039F00008000590012212213046FDF7EEFB00225F
:103A000008213046FDF7E9FB2A4F012241F204016B
:103A10003846FDF7E2FB002240213846FDF7DDFB8A
:103A2000DFF89480012211464046FDF7D6FB1A20AC
:103A300000900125CDE90154694630460394FDF715
:103A4000CFFA41F244000090CDE90154694638466E
:103A50000394FDF7C5FA18208DE831006946384611
:103A6000FDF7BEFA20208DE8310069463046FDF7AB
:103A7000B7FA4FF415408DE8310069464046FDF72E
:103A8000AFFA4CF608008DE8310069460B48FDF7A7
:103A9000A7FA11200095CDE9010469464046039438
:103AA000FDF79EFA06B0BDE8F08100003038024014
:103AB000000802400000024000100240000C0240DA
:103AC0000D4810B50B4901600C49416000214FF4CD
:103AD00080428160C0E9031241618161C16101627C
:103AE000FDF786FB002803D0BDE81040FCF7A8BF17
:103AF00010BD0000005C004048040020A0860100CA
:103B000010B588B01C216846FCF75AFC15481449CA
:103B100000240160A721C0E9011440F2E731C0E9A7
:103B2000031480218161FEF735F808B1FCF788FFA6
:103B30000C48FEF776FC08B1FCF782FF6020CDE967
:103B4000000402940022694606480494FEF703FC30
:103B500008B1FCF775FF0348FEF77EFB08B010BD07
:103B6000004401402407002010B588B01C2168469D
:103B7000FCF726FC1548144900240160A721C0E980
:103B8000011440F2E731C0E9031480218161FEF79E
:103B900001F808B1FCF754FF0C48FEF742FC08B1ED
:103BA000FCF74EFF6020CDE9000402940022694634
:103BB00006480494FEF7CFFB08B1FCF741FF034829
:103BC000FEF74AFB08B010BD004801406C0700201A
:103BD0001FB5002111480091019102910E4A0391F5
:103BE00002605322C0E9012140F2E732C0E903211B
:103BF00080218161FDF7CEFF08B1FCF721FF4FF472
:103C00008050009069460548FEF7C8F8002801D0AA
:103C1000FCF716FF1FBD000000180040B40700208D
:103C20000B4810B509490160002153224160C0E9E9
:103C30000212016180218161FDF7ACFF002803D0F1
:103C4000BDE81040FCF7FCBE10BD000000200040A5
:103C5000FC07002010B596B000240F941094119426
:103C6000129413941C2168461494FCF7A9FB20219C
:103C700007A8FCF7A5FB354833490160A721C0E937
:103C8000011440F2E731C0E903148021C0E9054185
:103C9000FDF780FF08B1FCF7D3FE4FF480500F9082
:103CA0000FA92A48FEF77AF808B1FCF7C9FE2748A1
:103CB000FEF7B7FB08B1FCF7C3FE139413A9234822
:103CC0001494FDF71FFF08B1FCF7BAFE6020CDE9A0
:103CD00000040294039404940594002269461B484E
:103CE0000694FEF738FB08B1FCF7AAFE04226946E9
:103CF0001648FEF730FB08B1FCF7A2FE0822694621
:103D00001248FEF728FB08B1FCF79AFE0C22694620
:103D10000E48FEF720FB08B1FCF792FE07940894CA
:103D200009944FF400500A94CDE90B4007A90748C5
:103D30000E94FDF7BDFE08B1FCF782FE0348FEF7C6
:103D40008BFA16B010BD0000000001409C0400205A
:103D500010B58CB024216846FCF732FB00241548CE
:103D600009944FF080410A94C0E90014611EC0E933
:103D70000241046184610320CDE900040120CDE902
:103D800002040A210491CDE90540CDE907416946C5
:103D90000848FEF771F808B1FCF752FE099409A92A
:103DA00004480A94FDF7AEFE002801D0FCF748FE57
:103DB0000CB010BDE404002010B58CB0242168467E
:103DC000FCF7FEFA00241648099414490A94C0E945
:103DD00000144FF6FF71C0E90241046184610320C1
:103DE000CDE900040120CDE902040A210491CDE9C6
:103DF0000540CDE9074169460948FEF73DF808B19D
:103E0000FCF71EFE099409A905480A94FDF77AFEFD
:103E1000002801D0FCF714FE0CB010BD00040040D7
:103E20002C05002010B58CB024216846FCF7C8FA98
:103E300000241648099414490A94C0E900144FF666
:103E4000FF71C0E90241046184610320CDE90004EF
:103E50000120CDE902040A210491CDE90540CDE914
:103E6000074169460948FEF707F808B1FCF7E8FD85
:103E7000099409A905480A94FDF744FE002801D0D9
:103E8000FCF7DEFD0CB010BD0008004074050020FA
:103E900010B58CB024216846FCF792FA002416482D
:103EA000099414490A94C0E90014611EC0E9024152
:103EB000046184610320CDE900040120CDE90204FE
:103EC0000A210491CDE90540CDE9074169460A4838
:103ED000FDF7D2FF08B1FCF7B3FD099409A9064824
:103EE0000A94FDF70FFE002801D0FCF7A9FD0CB0E5
:103EF00010BD0000000C0040BC0500201CB50024D3
:103F00000F4800940D49019401605321C0E9011448
:103F100040F2E731C16080218161FDF73BFE08B1CD
:103F2000FCF78EFD0094694605480194FDF7EAFD13
:103F3000002801D0FCF784FD1CBD000000100040EB
:103F4000040600201CB500240F4800940D4901947C
:103F500001605321C0E9011440F2E731C1608021C2
:103F60008161FDF717FE08B1FCF76AFD0094694610
:103F700005480194FDF7C6FD002801D0FCF760FD5F
:103F80001CBD0000001400404C06002010B596B087
:103F900000240F9410941194129413941C2108A8D7
:103FA0001494FCF70DFA20216846FCF709FA294819
:103FB00027490160A721C0E9011440F2E731C0E9B7
:103FC00003148021C0E90541FDF7E4FD08B1FCF7C9
:103FD00037FD4FF480500F900FA91E48FDF7DEFE0D
:103FE00008B1FCF72DFD1B48FEF71BFA08B1FCF7E2
:103FF00027FD139413A917481494FDF783FD08B106
:10400000FCF71EFD6020CDE908040A940B940C9483
:104010000D94082208A90F480E94FEF79CF908B1E8
:10402000FCF70EFD00944FF40050CDE904400294DB
:1040300001940394694607480794FDF739FD08B1D8
:10404000FCF7FEFC0348FEF707F916B010BD0000B0
:10405000000401409406002010B58CB000240794A1
:10406000089409941C2168460A94FCF7A9F91E4893
:104070001C490160A721C0E9011440F2E731C0E901
:10408000031480218161FDF785FD08B1FCF7D8FCA0
:104090004FF48050079007A91348FDF77FFE08B141
:1040A000FCF7CEFC1048FEF7BCF908B1FCF7C8FCE1
:1040B0006020CDE900040294002269460A48049475
:1040C000FEF749F908B1FCF7BBFC04226946064833
:1040D000FEF741F908B1FCF7B3FC0348FEF7BCF862
:1040E0000CB010BD00400140DC06002010B5114CA2
:1040F0000F480C2120604FF4165060600020A06033
:10410000E060C4E90401A061E0612046FEF73AFCEA
:1041100008B1FCF795FC2068C16841F01001C1604E
:10412000BDE810400B2204490248FEF7D5BE00004E
:10413000004C0040C40800209F0E002010B5114C18
:104140000F480C2120604FF4165060600020A060E2
:10415000E060C4E90401A061E0612046FEF712FCC2
:1041600008B1FCF76DFC2068C16841F01001C16026
:10417000BDE810400B2204490248FEF7ADBE000026
:104180000050004008090020AD0E002010B5114C71
:104190000F480C2120604FF4E13060600020A060E7
:1041A000E060C4E90401A061E0612046FEF7EAFB9B
:1041B00008B1FCF745FC2068C16841F01001C160FE
:1041C000BDE810400B2204490248FEF785BE0000FE
:1041D000001001404C090020BB0E00200C4810B517
:1041E0000A4901604FF4E1314160002181600C22F5
:1041F000C160C0E904128161C161FEF7C3FB002800
:1042000003D0BDE81040FCF71BBC10BD00440040CB
:10421000900900200C4810B50A4901604FF4E131C3
:104220004160002181600C22C160C0E904128161FB
:10423000C161FEF7A7FB002803D0BDE81040FCF7E2
:10424000FFBB10BD00480040D40900200C4810B549
:104250000A4901600B494160002181600C22C16064
:10426000C0E904128161C161FEF78CFB002803D014
:10427000BDE81040FCF7E4BB10BD00000014014095
:10428000180A002040420F00FEE7000070B5344CD1
:1042900000254B4226684FF47A72012809D0022883
:1042A0001DD0032831D004280DD1002946DC48D088
:1042B0004BE0002901DC03D006E0914200DD11460D
:1042C000F5632068016470BD934201DD134602E08E
:1042D000002B00DA0023F3632068056470BD2148D9
:1042E0000029046801DC03D005E0914200DD11469D
:1042F0006163006827E0934201DD134602E0002B72
:1043000000DA00236563006828E01748174C00298D
:10431000006801DC03D006E0914200DD11464163F4
:104320002068456370BD934201DD134602E0002B17
:1043300000DA002345632068436370BD914200DDCD
:10434000114671632068856370BD934201DD134699
:1043500002E0002B00DA002375632068836370BDE0
:104360009C040020DC0600206C07002024070020AD
:10437000FEE77047081A00EE100A1548B0EE002A52
:10438000B8EEC00AD0ED110AA0F5007130EE601A47
:10439000D1ED151A21EE211AD1ED161A01EE801A6F
:1043A000F0EE401A40EEC21A90ED122A71EE821A17
:1043B00091ED172A02EE211AD0ED131A443031EE96
:1043C000211A80EC030ABDEEC10A10EE100A7047F4
:1043D00058020020081A00EE100A1548B0EE002A14
:1043E000B8EEC00AD0ED190AA0F5007130EE601ADF
:1043F000D1ED1D1A21EE211AD1ED1E1A01EE801AFF
:10440000F0EE401A40EEC21A90ED1A2A71EE821AAE
:1044100091ED1F2A02EE211AD0ED1B1A643031EE05
:10442000211A80EC030ABDEEC10A10EE100A704793
:1044300058030020081A00EE100A1548B0EE002AB2
:10444000B8EEC00AD0ED150AA0F5007130EE601A82
:10445000D1ED1D1A21EE211AD1ED1E1A01EE801A9E
:10446000F0EE401A40EEC21A90ED162A71EE821A52
:1044700091ED1F2A02EE211AD0ED171A543031EEB9
:10448000211A80EC030ABDEEC10A10EE100A704733
:10449000D802002010B5042000F062FB104B5861D8
:1044A000D9690844D861996900F084F80D4AD0624E
:1044B000196901F0CAF8D062D3E90610401AFCF776
:1044C0005DF9052801DA002105E0D16A5869FFF796
:1044D00051FF0146D062BDE810400420FFF7D6BE70
:1044E000D80000205802002010B5042000F038FB4E
:1044F000124B586393ED0E0AF8EEC00A93ED0F0AC3
:10450000B8EEC00A00F09CF80D4AD064196B01F0B7
:104510009CF8D064D3E90E10401AFCF72FF9062856
:1045200001DA002105E0D16C586BFFF753FF01461B
:10453000D064BDE810400420FFF7A8BED8010020D9
:104540005803002070B5042000F00AFB144B154CF2
:10455000154DD861D4ED000A95ED000A00F0B4F8CD
:10456000124AD063996901F070F8D06395ED000AA2
:10457000D4ED000A01460E4C30EE600AB0EEC00ADF
:1045800010EE100AA04201DA002104E0D869FFF71A
:1045900051FF0146D063BDE870400420FFF776BEAE
:1045A00058010020E4030020E0030020D80200208E
:1045B0009A99193E081A00EE100A1B481B4AB8EED9
:1045C000C00AD0ED0E0A70EE800A10EE901AC0ED0F
:1045D0000E0A914203DDDFED160AC0ED0E0A10EE61
:1045E000901A144A914203D9DFED130AC0ED0E0A66
:1045F0001249D0ED0E1AD1ED120A91ED131A60EEA8
:10460000800A41EE210A90ED0D1AD1ED141A30EE18
:10461000411A41EE810AC0ED0F0A80ED0D0ABDEE90
:10462000E00A10EE100A70475802002000409C4536
:1046300000409C4500409CC500409CC5580000209F
:104640001B4830EEC00A1B4AD0ED160A70EE800AF5
:1046500010EE901AC0ED160A914203DDDFED160A46
:10466000C0ED160A10EE901A144A914203D9DFEDFC
:10467000140AC0ED160A1349D0ED161AD1ED1A0A24
:1046800091ED1B1A60EE800A41EE210A90ED151A99
:10469000D1ED1C1A30EE411A41EE810AC0ED170A25
:1046A00080ED150ABDEEE00A10EE100A704700001A
:1046B0005803002000409C4500409C4500409CC59C
:1046C00000409CC5580100201B4830EEC00A1B4A20
:1046D000D0ED120A70EE800A10EE901AC0ED120AA8
:1046E000914203DDDFED160AC0ED120A10EE901ABA
:1046F000144A914203D9DFED140AC0ED120A13499E
:10470000D0ED121AD1ED1A0A91ED1B1A60EE800A53
:1047100041EE210A90ED111AD1ED1C1A30EE411A2A
:1047200041EE810AC0ED130A80ED110ABDEEE00AE8
:1047300010EE100A70470000D802002000409C458F
:1047400000409C4500409CC500409CC5D80000200E
:10475000081A00EE100A1548B0EE002AB8EEC00A9A
:10476000D0ED160AA0F5C07130EE601AD1ED031A33
:1047700021EE211AD1ED041A01EE801AF0EE401A52
:1047800040EEC21A90ED172A71EE821A91ED052AB9
:1047900002EE211AD0ED181A583031EE211A80ECB1
:1047A000030ABDEEC10A10EE100A7047D8010020BE
:1047B000081A00EE100A1848B0EE002AB8EEC00A37
:1047C000D0ED1E0AA0F5C07130EE601AD1ED0B1AC3
:1047D00021EE211AD1ED0C1A01EE801AF0EE401AEA
:1047E00040EEC21A90ED1F2A71EE821A91ED0D2A49
:1047F00000F1800102EE211AD1ED001A31EE211AEA
:1048000081ED001AC0ED1F0A80ED1E0ABDEEC10A3F
:1048100010EE100A70470000D8020020081A00EEBF
:10482000100A1548B0EE002AB8EEC00AD0ED1A0AF8
:10483000A0F5C07130EE601AD1ED0B1A21EE211AED
:10484000D1ED0C1A01EE801AF0EE401A40EEC21AB9
:1048500090ED1B2A71EE821A91ED0D2A02EE211ABB
:10486000D0ED1C1A683031EE211A80EC030ABDEE3F
:10487000C10A10EE100A70475802002010B505203A
:1048800000F06EF9104B5866D96E0844D866996EE0
:1048900000F084F80D4A1064196E00F0D6FE106422
:1048A000D3E91A10401AFBF769FF052801DA002145
:1048B00005E0116C586EFFF74BFF01461064BDE830
:1048C00010400120FFF7E2BC58000020D801002072
:1048D00010B5052000F044F9124B586093ED020A20
:1048E000F8EEC00A93ED030AB8EEC00A00F09CF897
:1048F0000D4A1066196800F0A8FE1066D3E9021090
:10490000401AFBF73BFF062801DA002105E0116E93
:104910005868FFF74DFF01461066BDE810400120C2
:10492000FFF7B4BCD8010020D802002070B50520E4
:1049300000F016F9144B154C154D5860D4ED000AD3
:1049400095ED000A00F0B4F8124A1065196800F0FD
:104950007CFE106595ED000AD4ED000A01460E4C70
:1049600030EE600AB0EEC00A10EE100AA04201DA82
:10497000002104E05868FFF751FF01461065BDE8CB
:1049800070400120FFF782BC58010020E4030020A2
:10499000E0030020580200209A99193E081A00EE00
:1049A000100A1B481B4AB8EEC00AD0ED130A70EE7D
:1049B000800A10EE901AC0ED130A914203DDDFED7C
:1049C000160AC0ED130A10EE901A144A914203D948
:1049D000DFED130AC0ED130A1249D0ED131AD1ED21
:1049E000000A91ED011A60EE800A41EE210A90ED75
:1049F000121AD1ED021A30EE411A41EE810AC0EDD1
:104A0000140A80ED120ABDEEE00A10EE100A70479B
:104A1000D801002000409C4500409C4500409CC5BA
:104A200000409CC5580000201B4830EEC00A1B4ABD
:104A3000D0ED1B0A70EE800A10EE901AC0ED1B0A32
:104A4000914203DDDFED160AC0ED1B0A10EE901A4D
:104A5000144A914203D9DFED140AC0ED1B0A134931
:104A6000D0ED1B1AD1ED080A91ED091A60EE800A0B
:104A700041EE210A90ED1A1AD1ED0A1A30EE411AD0
:104A800041EE810AC0ED1C0A80ED1A0ABDEEE00A73
:104A900010EE100A70470000D802002000409C452C
:104AA00000409C4500409CC500409CC5580100202A
:104AB0001B4830EEC00A1B4AD0ED170A70EE800A80
:104AC00010EE901AC0ED170A914203DDDFED160AD1
:104AD000C0ED170A10EE901A144A914203D9DFED87
:104AE000140AC0ED170A1349D0ED171AD1ED080AC0
:104AF00091ED091A60EE800A41EE210A90ED161A36
:104B0000D1ED0A1A30EE411A41EE810AC0ED180AC1
:104B100080ED160ABDEEE00A10EE100A70470000A4
:104B20005802002000409C4500409C4500409CC528
:104B300000409CC5D800002010B508210648FCF7AD
:104B400047FB002806D10022BDE8104001210348A0
:104B5000FCF743BB10BD0000000C024000100240F7
:104B60000021022807D003280CD004280CD00528E7
:104B70000CD0002070474FF08042506A5162404292
:104B800000B27047044A02E0044A00E0044A106898
:104B90001160404200B270472404004024080040E5
:104BA000240C00407047FCF731BC000030B593B0D6
:104BB00030216846FBF704FC14210CA8FBF700FC2D
:104BC0001D480025016841F080510160006800F037
:104BD000805011901948016841F4804101600068DB
:104BE000022400F480401190012000900004019004
:104BF0008001CDE9064008AA0420A82182E813001C
:104C00000B906846FCF788FD08B172B6FEE70CA968
:104C10000F2081E831004FF4A0500F904FF48050E6
:104C2000109005210CA8FCF78DFC002801D072B66D
:104C3000FEE713B030BD0000403802400070004075
:104C40000248016841F470010160704788ED00E09E
:104C50000148FDF74DBA0000040600200148FDF7A9
:104C600047BA00004C06002010B50448FDF740FA92
:104C7000BDE810400248FDF73BBA00009406002052
:104C8000B4070020F0B50268254C264D264E274F6C
:104C9000274B4FF0804CA04209D0604507D0A84276
:104CA00005D0B04203D0B84201D0984204D122F0DE
:104CB000700E4A6842EA0E02A0421BD0604519D02D
:104CC000A84217D0B04215D0B84213D0984211D0A4
:104CD000184DA8420ED0184DA8420BD0174DA8422F
:104CE00008D0174DA84205D0164DA84202D0164D47
:104CF000A84203D122F44075CA682A434D6922F0C4
:104D000080022A4302608A68C2620A688262A04204
:104D100001D0984201D10969016301214161F0BDCF
:104D2000000001400004004000080040000C00406A
:104D3000000401400040014000440140004801409F
:104D400000180040001C00400020004010B501F099
:104D50001F030121046A99408C430462016A9A404E
:104D60001143016210BD10B5846842EA032224F4A5
:104D70007F440A432243826010BD826822F07002A1
:104D80000A4342F00701816070470000F0B5026AF3
:104D900022F001020262036A42688469124E24F022
:104DA00073050C682C4323F002058B682B430D4DD3
:104DB000A84201D0B04205D123F00807CB683B439D
:104DC00023F00403A84201D0B04205D14D6922F47A
:104DD000407215438A692A4342608461496841638D
:104DE0000362F0BD0000014000040140F0B5026A1A
:104DF00022F010020262026A436884690D6824F49A
:104E0000E64444EA05248D6822F0200242EA0512B5
:104E10000F4D104EA84201D0B04206D1CF6822F00B
:104E2000800242EA071222F04002A84201D0B042BA
:104E300007D14D6923F4406343EA85038D6943EA52
:104E4000850343608461496881630262F0BD0000AC
:104E50000000014000040140F0B5026A22F48072B3
:104E60000262026A4368C46922F4007224F0730586
:104E70000C68124E2C438D6842EA05220E4DA84262
:104E800001D0B04206D1CF6822F4006242EA072284
:104E900022F48062A84201D0B04207D14D6923F4C8
:104EA000405343EA05138D6943EA05134360C46127
:104EB0004968C1630262F0BD000001400004014086
:104EC00030B5026A22F480520262046A4268C36901
:104ED0000D6823F4E64343EA05238D6824F4005467
:104EE00044EA0534084DA84202D0084DA84204D136
:104EF0004D6922F4804242EA85124260C3614968EA
:104F00000164046230BD0000000001400004014063
:104F100010B5036A046A24F001040462846924F071
:104F2000F00444EA021423F00A020A438461026294
:104F300010BD10B5036A23F0100303628369046A8D
:104F400023F4704343EA023224F0A00343EA011140
:104F50008261016210BD000038B50F480068016829
:104F60000E4CC1F3001169B10168406800900A4815
:104F7000FDF79AFB0A4800684068C0F10B006070BA
:104F8000012020700B22E11C0348FDF7A5FFBDE8BE
:104F900038400148FDF7C2BBC40800209C0E002029
:104FA0005C0A002038B50F48006801680E4CC1F358
:104FB000001169B10168406800900A48FDF774FB70
:104FC0000A4800684068C0F10B0060700120207042
:104FD0000B22E11C0348FDF77FFFBDE83840014884
:104FE000FDF79CBB08090020AA0E00201C0B002026
:104FF00010B5806B0021C185C184FDF78DFB10BD0C
:1050000070B5846B2068406994F83D10C0F3C010FF
:105010000025212904D118B1E584204600F0B0F81C
:105020002068406994F83E10C0F38010222904D112
:1050300018B1E585204600F07CF8206C40F01000A7
:1050400020642046FDF768FB70BD10B50146806BFB
:1050500009680968C9052FD40021C18501680C3190
:1050600051E8002F22F4807241E80023002BF5D193
:105070000168143151E8002F22F0010241E80023B9
:10508000002BF5D10168143151E8002F22F04002C5
:1050900041E80023002BF5D1202180F83E10016B60
:1050A000012909D101680C3151E8002F22F01002CA
:1050B00041E80023002BF5D1016B012902D0FDF757
:1050C00020FF10BD818DFDF7EEFA10BD10B5806B8D
:1050D000016B012902D0FDF715FF10BD818D490834
:1050E000FDF7E1FA10BD10B50146806B096809684B
:1050F000C90516D40021C1840168143151E8002F7C
:1051000022F0800241E80023002BF5D101680C3128
:1051100051E8002F42F0400241E80023002BF5D176
:1051200010BDFDF737FF10BD10B5806BFDF733FFE5
:1051300010BD01680C3151E8002F22F4907241E853
:105140000023002BF5D10168143151E8002F22F023
:10515000010241E80023002BF5D1016B012909D19F
:1051600001680C3151E8002F22F0100241E80023C1
:10517000002BF5D1202180F83E10002101637047FB
:1051800001680C3151E8002F22F0C00241E80023F1
:10519000002BF5D1202180F83D10704708B590F81C
:1051A0003E10222901D0022008BD82684FF48053AE
:1051B0009A4201D1016921B1816A9A421BD04AB158
:1051C0000AE00268816A5268C2F308020A80816AB2
:1051D000891C08E0026972B10268526802F07F021D
:1051E0000A70816A491C8162C18D491E0904090C3B
:1051F000C18503D019E002685268F1E70168CA6806
:1052000022F02002CA600168CA6822F48072CA6073
:1052100001684A6922F001024A61202180F83E10AB
:10522000016B012903D0FDF76CFE002008BD0021B1
:10523000016301680C3151E8002F22F0100241E8AF
:105240000023002BF5D101680A68D20602D50A684E
:1052500049680091818DFDF726FAE6E770B50446AE
:1052600000680169E26821F440511143016121693C
:10527000A068E26908436169114308432168CA686C
:1052800049F20C639A430243CA6020684169A269EB
:1052900021F440711143416131492068884202D0B4
:1052A0003049884202D1FCF7F7F901E0FCF7E4F954
:1052B000E2690023192164253226B2F5004F6268A5
:1052C00028D0A0FB0101930F9200FAF7F5FF0146E9
:1052D000B0FBF5F06FF01802504301EB800006EBD5
:1052E0000010B0FBF5F000F0F002B1FBF5F002EBBE
:1052F0000012B1FBF5F06FF01803584301EB80008A
:1053000006EB0010B0FBF5F000F00F002168104430
:10531000886070BDA0FB010192185B41FAF7CCFFD9
:105320000146B0FBF5F00201B1FBF5F06FF0180398
:10533000584301EB800006EBC000B0FBF5F000F035
:10534000F80002EB4002B1FBF5F0584301EB80009E
:1053500006EBC000B0FBF5F000F00700D6E7000058
:10536000001001400014014038B58162828500259B
:10537000134604460564222084F83E00A26B1C48B4
:10538000D063A26B1B481064A26B1B48D064A06B57
:105390000A4605652168A06B091DFBF7E9FD206839
:1053A00001684068009084F83C50206948B120684A
:1053B0000C3050E8001F41F4807140E80012002AD0
:1053C000F5D12068143050E8001F41F0010140E899
:1053D0000012002AF5D12068143050E8001F41F077
:1053E000400140E80012002AF5D1002038BD00003D
:1053F0004B500008CD500008015000082DE9F04145
:10540000984617460E460446069D27E0681C25D0A0
:105410002DB1FBF7E7FEA0EB0800A8421ED92068DB
:105420000C3050E8001F21F4D07140E80012002A2F
:10543000F5D12068143050E8001F21F0010140E848
:105440000012002AF5D1202084F83D0084F83E00A7
:10545000002084F83C000320BDE8F081206800684B
:1054600036EA000004D00020B842CFD00020F3E795
:105470000120F9E738B50F48006801680E4CC1F308
:10548000001169B10168406800900A48FDF70CF905
:105490000A4800684068C0F10B006070012020706D
:1054A0000B22E11C0348FDF717FDBDE83840014819
:1054B000FDF734B94C090020B80E0020DC0B0020A9
:1054C0000148FDF72BB90000D40900200148FDF781
:1054D00025B90000180A002002480021C16281623B
:1054E000704700000000002010B513460C460A4625
:1054F00001460448FDF790FC08B1002010BD20B221
:1055000010BD0000180A00200A4601460148FDF7B8
:10551000FBBC0000180A0020FEE700210A464318E1
:10552000491C89B2DA700B29F9D3552181700270B8
:105530004270704730B5204948780B283BD3C87873
:105540008A78904237D10879532834D11B4AD1F850
:105550000500DFED1B1A9060D1F80900D06092EDD4
:10556000000A9FED182A184D002002F1080400BF20
:1055700034F9103000EE903A01EB8003F8EEE00AC7
:1055800060EEA10A60EE820AC3ED040A91ED061AEC
:10559000F0EEC10AF5EEC00AF1EE10FA05DD10EEEC
:1055A000903AAB4201DAB0EE410A401CC0B2032887
:1055B000DED382ED000A30BDB80E0020E0030020EB
:1055C0000000003800003443000034432DE9FC4162
:1055D00015466C4606460A461F462046611CFDF7E6
:1055E000DDFC2A46E11CA01CFDF7D8FC3A46611DF3
:1055F000201DFDF7D3FC06236A462A21304600F021
:1056000077F8BDE8FC817CB515460646002903DA2B
:10561000484240F4004001B26C460A46601C8DF8D6
:105620000030411CFDF7BAFC0022211DE01CFDF7F3
:10563000B5FC2A46A11D601DFDF7B0FC07236A4694
:105640002921304600F03EF87CBD884202DC494208
:10565000884202DA00EE101A01E000EE100AB8EEFD
:10566000C00ABDEEC00A10EE100A70470907090E05
:10567000002804DB00F1E02080F80014704700F0FF
:105680000F0000F1E02080F8141D704738B50024A9
:1056900025460121684600F021FB00280FD09DF827
:1056A0000010E0B260F30F2461F30704FF2901D179
:1056B000FF2805D06D1CEDB20A2DEAD9002038BDB7
:1056C000012038BDF8B51C4615460E46074600F0C9
:1056D00000FB0320009023462A463146384600F05E
:1056E00027FB00F015FB3846BDE8F840FBF74AB849
:1056F000F8B51C4615460E46074600F0ECFA0320A6
:10570000009023462A463146384600F011FB00F04F
:10571000FFFA3846BDE8F840FBF734B810B5044C42
:10572000206004480160044802600448036010BD22
:10573000C0000020D0000020E0000020F000002089
:10574000FF4C00252DED028BA570FBF767FEFBF7E4
:1057500089F8FF20A070E570FFF728FAFEF710F92E
:10576000FEF7A8F8FEF7C2FCFEF7E8FCFEF70EFD18
:10577000FEF734FDFEF74EFDFEF768FDFEF768F814
:10578000FEF768FAFEF7E4FAFEF716FBFEF74AFBAF
:10579000FEF77EFBFEF7B2FBFEF7F8FBFEF75CFCC4
:1057A000FEF7AEF9FEF7E0F9FEF7CCFBFEF710FAD4
:1057B000FEF736FAFEF784F9E248FCF7AFFAE24862
:1057C000FCF7ACFA0021E148FCF75AFE0421DF485F
:1057D000FCF756FE0821DD48FCF752FE0C21DB48A1
:1057E000FCF74EFE0021DA48FCF74AFE0421D848B7
:1057F000FCF746FE0021D748FCF742FE0021D648C0
:10580000FCF73EFE3C21D548FCF72AFC3C21D4485D
:10581000FCF726FC3C21D348FCF722FC3C21D24873
:10582000FCF71EFCD148FFF778FED148FDF7A8FF32
:10583000D048FDF7D9FFA2464FF0010B9FEDCE8B6C
:1058400040F6B8394FF4FA664FF06408FFF774F980
:10585000FAF7C4FFBA4C303CA07B28B16422012186
:105860001E20FBF70DF8A573E07B38B164220221FE
:105870001E20FBF705F88AF802B0E573207C38B1EA
:10588000642203211E20FAF7FBFF8AF802502574D8
:105890009AF802005746012828D1208B012825D1EB
:1058A00000234FF4966240F6FF31FFF7ACFE002371
:1058B0004FF47A7240F2FF710220FFF7A4FE00233A
:1058C0004A4640F2FF710320FFF79DFE0023324657
:1058D0004FF441610420FFF796FE0023324640F268
:1058E000FF710520FFF78FFEFF20B870B87840BB2E
:1058F000208B012825D100234FF4966240F61441F5
:10590000FFF781FE00234FF47A7240F695210220C2
:10591000FFF779FE00234A4640F223210320FFF7D8
:1059200072FE002332464FF441610420FFF76BFE04
:105930000023324640F26D310520FFF764FEFF2060
:10594000B870607C20B1A4F8168084F800B065744B
:10595000A07C012829D1607938B9FEF78FFFFDF7C7
:10596000BDFBFDF7ADFDFEF795FD607901280AD17D
:105970002079012818D1FEF7D9FFFDF7F9FDFDF7D1
:1059800005FCFEF7DFFD607902280DD1A078012823
:105990000AD1E078012807D1FEF79AFFFDF7BAFD9A
:1059A000FDF7C6FBFEF7A0FDA574704F38780128FF
:1059B00002D1FFF7BFFD3D706D4F3878012802D14D
:1059C000FDF7ECFE3D706B4F3878012802D1FDF7F2
:1059D00019FF3D70207800283FF438AFFBF720F81E
:1059E000A08A012829D1616A42F2107081423FF6F3
:1059F0002DAF14231A461946184600F077F94FF4D4
:105A00002572504213460146FFF788FE5C48006845
:105A100000F0B6FA9FED5B1B53EC112B00F058FB26
:105A200053EC182B00F0C4FA07D2FAF732FFA08A21
:105A3000401CA0826562A4F81680A08A022827D1A3
:105A4000616A42F210708142D1D814231A46194675
:105A5000184600F04BF94D48414203460A46FFF70D
:105A60005DFE4B48006800F08BFA9FED4A1B53EC3B
:105A7000112B00F02DFB53EC182B00F099FA07D2F4
:105A8000FAF707FFA08A401CA0826562A4F816807E
:105A9000A08A032838D1606A4F46B842A7D80023AD
:105AA0004FF4966240F6FF310120FFF7ACFD002372
:105AB0004FF47A7240F695210220FFF7A4FD0023EF
:105AC0003A464FF461710320FFF79DFD00233246F3
:105AD0004FF441610420FFF796FD0023324640F267
